{
	"contracts/SmartContractWallet.sol": {
		"SmartContractWallet": {
			"abi": [
				{
					"inputs": [],
					"stateMutability": "nonpayable",
					"type": "constructor"
				},
				{
					"inputs": [
						{
							"internalType": "address",
							"name": "",
							"type": "address"
						}
					],
					"name": "allowence",
					"outputs": [
						{
							"internalType": "uint256",
							"name": "",
							"type": "uint256"
						}
					],
					"stateMutability": "view",
					"type": "function"
				},
				{
					"inputs": [],
					"name": "confirmationFromGuardianForReset",
					"outputs": [
						{
							"internalType": "uint256",
							"name": "",
							"type": "uint256"
						}
					],
					"stateMutability": "view",
					"type": "function"
				},
				{
					"inputs": [
						{
							"internalType": "address",
							"name": "",
							"type": "address"
						}
					],
					"name": "guardians",
					"outputs": [
						{
							"internalType": "bool",
							"name": "",
							"type": "bool"
						}
					],
					"stateMutability": "view",
					"type": "function"
				},
				{
					"inputs": [
						{
							"internalType": "address",
							"name": "",
							"type": "address"
						}
					],
					"name": "isAllowedToSend",
					"outputs": [
						{
							"internalType": "bool",
							"name": "",
							"type": "bool"
						}
					],
					"stateMutability": "view",
					"type": "function"
				},
				{
					"inputs": [],
					"name": "owner",
					"outputs": [
						{
							"internalType": "address payable",
							"name": "",
							"type": "address"
						}
					],
					"stateMutability": "view",
					"type": "function"
				},
				{
					"inputs": [
						{
							"internalType": "address payable",
							"name": "_newOwner",
							"type": "address"
						}
					],
					"name": "proposeNewOwner",
					"outputs": [],
					"stateMutability": "nonpayable",
					"type": "function"
				},
				{
					"inputs": [
						{
							"internalType": "address",
							"name": "_for",
							"type": "address"
						},
						{
							"internalType": "uint256",
							"name": "_amount",
							"type": "uint256"
						}
					],
					"name": "setAllowance",
					"outputs": [],
					"stateMutability": "nonpayable",
					"type": "function"
				},
				{
					"inputs": [
						{
							"internalType": "address",
							"name": "_guardians",
							"type": "address"
						},
						{
							"internalType": "bool",
							"name": "_isGuardian",
							"type": "bool"
						}
					],
					"name": "setGaurdian",
					"outputs": [],
					"stateMutability": "nonpayable",
					"type": "function"
				},
				{
					"inputs": [
						{
							"internalType": "address payable",
							"name": "_to",
							"type": "address"
						},
						{
							"internalType": "uint256",
							"name": "_amount",
							"type": "uint256"
						},
						{
							"internalType": "bytes",
							"name": "_payload",
							"type": "bytes"
						}
					],
					"name": "transfer",
					"outputs": [
						{
							"internalType": "bytes",
							"name": "",
							"type": "bytes"
						}
					],
					"stateMutability": "nonpayable",
					"type": "function"
				},
				{
					"stateMutability": "payable",
					"type": "receive"
				}
			],
			"devdoc": {
				"kind": "dev",
				"methods": {},
				"version": 1
			},
			"evm": {
				"assembly": "    /* \"contracts/SmartContractWallet.sol\":234:2539  contract SmartContractWallet {... */\n  mstore(0x40, 0x80)\n    /* \"contracts/SmartContractWallet.sol\":654:712  constructor() {... */\n  callvalue\n  dup1\n  iszero\n  tag_1\n  jumpi\n  0x00\n  dup1\n  revert\ntag_1:\n  pop\n    /* \"contracts/SmartContractWallet.sol\":694:704  msg.sender */\n  caller\n    /* \"contracts/SmartContractWallet.sol\":678:683  owner */\n  0x00\n  dup1\n    /* \"contracts/SmartContractWallet.sol\":678:705  owner = payable(msg.sender) */\n  0x0100\n  exp\n  dup2\n  sload\n  dup2\n  0xffffffffffffffffffffffffffffffffffffffff\n  mul\n  not\n  and\n  swap1\n  dup4\n  0xffffffffffffffffffffffffffffffffffffffff\n  and\n  mul\n  or\n  swap1\n  sstore\n  pop\n    /* \"contracts/SmartContractWallet.sol\":234:2539  contract SmartContractWallet {... */\n  dataSize(sub_0)\n  dup1\n  dataOffset(sub_0)\n  0x00\n  codecopy\n  0x00\n  return\nstop\n\nsub_0: assembly {\n        /* \"contracts/SmartContractWallet.sol\":234:2539  contract SmartContractWallet {... */\n      mstore(0x40, 0x80)\n      jumpi(tag_1, lt(calldatasize, 0x04))\n      shr(0xe0, calldataload(0x00))\n      dup1\n      0xa364c09f\n      gt\n      tag_12\n      jumpi\n      dup1\n      0xa364c09f\n      eq\n      tag_7\n      jumpi\n      dup1\n      0xaef46244\n      eq\n      tag_8\n      jumpi\n      dup1\n      0xb1f8100d\n      eq\n      tag_9\n      jumpi\n      dup1\n      0xbe45fd62\n      eq\n      tag_10\n      jumpi\n      dup1\n      0xcaf5b411\n      eq\n      tag_11\n      jumpi\n      jump(tag_2)\n    tag_12:\n      dup1\n      0x0633b14a\n      eq\n      tag_3\n      jumpi\n      dup1\n      0x0bc605ad\n      eq\n      tag_4\n      jumpi\n      dup1\n      0x310ec4a7\n      eq\n      tag_5\n      jumpi\n      dup1\n      0x8da5cb5b\n      eq\n      tag_6\n      jumpi\n      jump(tag_2)\n    tag_1:\n      jumpi(tag_2, calldatasize)\n      stop\n    tag_2:\n      0x00\n      dup1\n      revert\n        /* \"contracts/SmartContractWallet.sol\":404:445  mapping(address => bool) public guardians */\n    tag_3:\n      callvalue\n      dup1\n      iszero\n      tag_15\n      jumpi\n      0x00\n      dup1\n      revert\n    tag_15:\n      pop\n      tag_16\n      0x04\n      dup1\n      calldatasize\n      sub\n      dup2\n      add\n      swap1\n      tag_17\n      swap2\n      swap1\n      tag_18\n      jump\t// in\n    tag_17:\n      tag_19\n      jump\t// in\n    tag_16:\n      mload(0x40)\n      tag_20\n      swap2\n      swap1\n      tag_21\n      jump\t// in\n    tag_20:\n      mload(0x40)\n      dup1\n      swap2\n      sub\n      swap1\n      return\n        /* \"contracts/SmartContractWallet.sol\":350:397  mapping(address => bool) public isAllowedToSend */\n    tag_4:\n      callvalue\n      dup1\n      iszero\n      tag_22\n      jumpi\n      0x00\n      dup1\n      revert\n    tag_22:\n      pop\n      tag_23\n      0x04\n      dup1\n      calldatasize\n      sub\n      dup2\n      add\n      swap1\n      tag_24\n      swap2\n      swap1\n      tag_18\n      jump\t// in\n    tag_24:\n      tag_25\n      jump\t// in\n    tag_23:\n      mload(0x40)\n      tag_26\n      swap2\n      swap1\n      tag_21\n      jump\t// in\n    tag_26:\n      mload(0x40)\n      dup1\n      swap2\n      sub\n      swap1\n      return\n        /* \"contracts/SmartContractWallet.sol\":1495:1815  function setAllowance(address _for, uint _amount) public {... */\n    tag_5:\n      callvalue\n      dup1\n      iszero\n      tag_27\n      jumpi\n      0x00\n      dup1\n      revert\n    tag_27:\n      pop\n      tag_28\n      0x04\n      dup1\n      calldatasize\n      sub\n      dup2\n      add\n      swap1\n      tag_29\n      swap2\n      swap1\n      tag_30\n      jump\t// in\n    tag_29:\n      tag_31\n      jump\t// in\n    tag_28:\n      stop\n        /* \"contracts/SmartContractWallet.sol\":269:297  address payable public owner */\n    tag_6:\n      callvalue\n      dup1\n      iszero\n      tag_32\n      jumpi\n      0x00\n      dup1\n      revert\n    tag_32:\n      pop\n      tag_33\n      tag_34\n      jump\t// in\n    tag_33:\n      mload(0x40)\n      tag_35\n      swap2\n      swap1\n      tag_36\n      jump\t// in\n    tag_35:\n      mload(0x40)\n      dup1\n      swap2\n      sub\n      swap1\n      return\n        /* \"contracts/SmartContractWallet.sol\":718:909  function setGaurdian(address _guardians, bool _isGuardian) public {... */\n    tag_7:\n      callvalue\n      dup1\n      iszero\n      tag_37\n      jumpi\n      0x00\n      dup1\n      revert\n    tag_37:\n      pop\n      tag_38\n      0x04\n      dup1\n      calldatasize\n      sub\n      dup2\n      add\n      swap1\n      tag_39\n      swap2\n      swap1\n      tag_40\n      jump\t// in\n    tag_39:\n      tag_41\n      jump\t// in\n    tag_38:\n      stop\n        /* \"contracts/SmartContractWallet.sol\":304:344  mapping(address => uint)public allowence */\n    tag_8:\n      callvalue\n      dup1\n      iszero\n      tag_42\n      jumpi\n      0x00\n      dup1\n      revert\n    tag_42:\n      pop\n      tag_43\n      0x04\n      dup1\n      calldatasize\n      sub\n      dup2\n      add\n      swap1\n      tag_44\n      swap2\n      swap1\n      tag_18\n      jump\t// in\n    tag_44:\n      tag_45\n      jump\t// in\n    tag_43:\n      mload(0x40)\n      tag_46\n      swap2\n      swap1\n      tag_47\n      jump\t// in\n    tag_46:\n      mload(0x40)\n      dup1\n      swap2\n      sub\n      swap1\n      return\n        /* \"contracts/SmartContractWallet.sol\":915:1489  function proposeNewOwner(address payable _newOwner) public {... */\n    tag_9:\n      callvalue\n      dup1\n      iszero\n      tag_48\n      jumpi\n      0x00\n      dup1\n      revert\n    tag_48:\n      pop\n      tag_49\n      0x04\n      dup1\n      calldatasize\n      sub\n      dup2\n      add\n      swap1\n      tag_50\n      swap2\n      swap1\n      tag_51\n      jump\t// in\n    tag_50:\n      tag_52\n      jump\t// in\n    tag_49:\n      stop\n        /* \"contracts/SmartContractWallet.sol\":1821:2502  function transfer(address payable _to, uint _amount, bytes memory _payload) public returns (bytes memory){... */\n    tag_10:\n      callvalue\n      dup1\n      iszero\n      tag_53\n      jumpi\n      0x00\n      dup1\n      revert\n    tag_53:\n      pop\n      tag_54\n      0x04\n      dup1\n      calldatasize\n      sub\n      dup2\n      add\n      swap1\n      tag_55\n      swap2\n      swap1\n      tag_56\n      jump\t// in\n    tag_55:\n      tag_57\n      jump\t// in\n    tag_54:\n      mload(0x40)\n      tag_58\n      swap2\n      swap1\n      tag_59\n      jump\t// in\n    tag_58:\n      mload(0x40)\n      dup1\n      swap2\n      sub\n      swap1\n      return\n        /* \"contracts/SmartContractWallet.sol\":590:647  uint public constant confirmationFromGuardianForReset = 3 */\n    tag_11:\n      callvalue\n      dup1\n      iszero\n      tag_60\n      jumpi\n      0x00\n      dup1\n      revert\n    tag_60:\n      pop\n      tag_61\n      tag_62\n      jump\t// in\n    tag_61:\n      mload(0x40)\n      tag_63\n      swap2\n      swap1\n      tag_47\n      jump\t// in\n    tag_63:\n      mload(0x40)\n      dup1\n      swap2\n      sub\n      swap1\n      return\n        /* \"contracts/SmartContractWallet.sol\":404:445  mapping(address => bool) public guardians */\n    tag_19:\n      mstore(0x20, 0x03)\n      dup1\n      0x00\n      mstore\n      keccak256(0x00, 0x40)\n      0x00\n      swap2\n      pop\n      sload\n      swap1\n      0x0100\n      exp\n      swap1\n      div\n      0xff\n      and\n      dup2\n      jump\t// out\n        /* \"contracts/SmartContractWallet.sol\":350:397  mapping(address => bool) public isAllowedToSend */\n    tag_25:\n      mstore(0x20, 0x02)\n      dup1\n      0x00\n      mstore\n      keccak256(0x00, 0x40)\n      0x00\n      swap2\n      pop\n      sload\n      swap1\n      0x0100\n      exp\n      swap1\n      div\n      0xff\n      and\n      dup2\n      jump\t// out\n        /* \"contracts/SmartContractWallet.sol\":1495:1815  function setAllowance(address _for, uint _amount) public {... */\n    tag_31:\n        /* \"contracts/SmartContractWallet.sol\":1584:1589  owner */\n      0x00\n      dup1\n      sload\n      swap1\n      0x0100\n      exp\n      swap1\n      div\n      0xffffffffffffffffffffffffffffffffffffffff\n      and\n        /* \"contracts/SmartContractWallet.sol\":1570:1589  msg.sender == owner */\n      0xffffffffffffffffffffffffffffffffffffffff\n      and\n        /* \"contracts/SmartContractWallet.sol\":1570:1580  msg.sender */\n      caller\n        /* \"contracts/SmartContractWallet.sol\":1570:1589  msg.sender == owner */\n      0xffffffffffffffffffffffffffffffffffffffff\n      and\n      eq\n        /* \"contracts/SmartContractWallet.sol\":1562:1625  require(msg.sender == owner, \"You are not the owner, aborting\") */\n      tag_65\n      jumpi\n      mload(0x40)\n      0x08c379a000000000000000000000000000000000000000000000000000000000\n      dup2\n      mstore\n      0x04\n      add\n      tag_66\n      swap1\n      tag_67\n      jump\t// in\n    tag_66:\n      mload(0x40)\n      dup1\n      swap2\n      sub\n      swap1\n      revert\n    tag_65:\n        /* \"contracts/SmartContractWallet.sol\":1653:1660  _amount */\n      dup1\n        /* \"contracts/SmartContractWallet.sol\":1635:1644  allowence */\n      0x01\n        /* \"contracts/SmartContractWallet.sol\":1635:1650  allowence[_for] */\n      0x00\n        /* \"contracts/SmartContractWallet.sol\":1645:1649  _for */\n      dup5\n        /* \"contracts/SmartContractWallet.sol\":1635:1650  allowence[_for] */\n      0xffffffffffffffffffffffffffffffffffffffff\n      and\n      0xffffffffffffffffffffffffffffffffffffffff\n      and\n      dup2\n      mstore\n      0x20\n      add\n      swap1\n      dup2\n      mstore\n      0x20\n      add\n      0x00\n      keccak256\n        /* \"contracts/SmartContractWallet.sol\":1635:1660  allowence[_for] = _amount */\n      dup2\n      swap1\n      sstore\n      pop\n        /* \"contracts/SmartContractWallet.sol\":1685:1686  0 */\n      0x00\n        /* \"contracts/SmartContractWallet.sol\":1675:1682  _amount */\n      dup2\n        /* \"contracts/SmartContractWallet.sol\":1675:1686  _amount > 0 */\n      gt\n        /* \"contracts/SmartContractWallet.sol\":1671:1809  if (_amount > 0) {... */\n      iszero\n      tag_68\n      jumpi\n        /* \"contracts/SmartContractWallet.sol\":1726:1730  true */\n      0x01\n        /* \"contracts/SmartContractWallet.sol\":1702:1717  isAllowedToSend */\n      0x02\n        /* \"contracts/SmartContractWallet.sol\":1702:1723  isAllowedToSend[_for] */\n      0x00\n        /* \"contracts/SmartContractWallet.sol\":1718:1722  _for */\n      dup5\n        /* \"contracts/SmartContractWallet.sol\":1702:1723  isAllowedToSend[_for] */\n      0xffffffffffffffffffffffffffffffffffffffff\n      and\n      0xffffffffffffffffffffffffffffffffffffffff\n      and\n      dup2\n      mstore\n      0x20\n      add\n      swap1\n      dup2\n      mstore\n      0x20\n      add\n      0x00\n      keccak256\n      0x00\n        /* \"contracts/SmartContractWallet.sol\":1702:1730  isAllowedToSend[_for] = true */\n      0x0100\n      exp\n      dup2\n      sload\n      dup2\n      0xff\n      mul\n      not\n      and\n      swap1\n      dup4\n      iszero\n      iszero\n      mul\n      or\n      swap1\n      sstore\n      pop\n        /* \"contracts/SmartContractWallet.sol\":1671:1809  if (_amount > 0) {... */\n      jump(tag_69)\n    tag_68:\n        /* \"contracts/SmartContractWallet.sol\":1793:1798  false */\n      0x00\n        /* \"contracts/SmartContractWallet.sol\":1769:1784  isAllowedToSend */\n      0x02\n        /* \"contracts/SmartContractWallet.sol\":1769:1790  isAllowedToSend[_for] */\n      0x00\n        /* \"contracts/SmartContractWallet.sol\":1785:1789  _for */\n      dup5\n        /* \"contracts/SmartContractWallet.sol\":1769:1790  isAllowedToSend[_for] */\n      0xffffffffffffffffffffffffffffffffffffffff\n      and\n      0xffffffffffffffffffffffffffffffffffffffff\n      and\n      dup2\n      mstore\n      0x20\n      add\n      swap1\n      dup2\n      mstore\n      0x20\n      add\n      0x00\n      keccak256\n      0x00\n        /* \"contracts/SmartContractWallet.sol\":1769:1798  isAllowedToSend[_for] = false */\n      0x0100\n      exp\n      dup2\n      sload\n      dup2\n      0xff\n      mul\n      not\n      and\n      swap1\n      dup4\n      iszero\n      iszero\n      mul\n      or\n      swap1\n      sstore\n      pop\n        /* \"contracts/SmartContractWallet.sol\":1671:1809  if (_amount > 0) {... */\n    tag_69:\n        /* \"contracts/SmartContractWallet.sol\":1495:1815  function setAllowance(address _for, uint _amount) public {... */\n      pop\n      pop\n      jump\t// out\n        /* \"contracts/SmartContractWallet.sol\":269:297  address payable public owner */\n    tag_34:\n      0x00\n      dup1\n      sload\n      swap1\n      0x0100\n      exp\n      swap1\n      div\n      0xffffffffffffffffffffffffffffffffffffffff\n      and\n      dup2\n      jump\t// out\n        /* \"contracts/SmartContractWallet.sol\":718:909  function setGaurdian(address _guardians, bool _isGuardian) public {... */\n    tag_41:\n        /* \"contracts/SmartContractWallet.sol\":816:821  owner */\n      0x00\n      dup1\n      sload\n      swap1\n      0x0100\n      exp\n      swap1\n      div\n      0xffffffffffffffffffffffffffffffffffffffff\n      and\n        /* \"contracts/SmartContractWallet.sol\":802:821  msg.sender == owner */\n      0xffffffffffffffffffffffffffffffffffffffff\n      and\n        /* \"contracts/SmartContractWallet.sol\":802:812  msg.sender */\n      caller\n        /* \"contracts/SmartContractWallet.sol\":802:821  msg.sender == owner */\n      0xffffffffffffffffffffffffffffffffffffffff\n      and\n      eq\n        /* \"contracts/SmartContractWallet.sol\":794:857  require(msg.sender == owner, \"You are not the owner, aborting\") */\n      tag_71\n      jumpi\n      mload(0x40)\n      0x08c379a000000000000000000000000000000000000000000000000000000000\n      dup2\n      mstore\n      0x04\n      add\n      tag_72\n      swap1\n      tag_67\n      jump\t// in\n    tag_72:\n      mload(0x40)\n      dup1\n      swap2\n      sub\n      swap1\n      revert\n    tag_71:\n        /* \"contracts/SmartContractWallet.sol\":891:902  _isGuardian */\n      dup1\n        /* \"contracts/SmartContractWallet.sol\":867:876  guardians */\n      0x03\n        /* \"contracts/SmartContractWallet.sol\":867:888  guardians[_guardians] */\n      0x00\n        /* \"contracts/SmartContractWallet.sol\":877:887  _guardians */\n      dup5\n        /* \"contracts/SmartContractWallet.sol\":867:888  guardians[_guardians] */\n      0xffffffffffffffffffffffffffffffffffffffff\n      and\n      0xffffffffffffffffffffffffffffffffffffffff\n      and\n      dup2\n      mstore\n      0x20\n      add\n      swap1\n      dup2\n      mstore\n      0x20\n      add\n      0x00\n      keccak256\n      0x00\n        /* \"contracts/SmartContractWallet.sol\":867:902  guardians[_guardians] = _isGuardian */\n      0x0100\n      exp\n      dup2\n      sload\n      dup2\n      0xff\n      mul\n      not\n      and\n      swap1\n      dup4\n      iszero\n      iszero\n      mul\n      or\n      swap1\n      sstore\n      pop\n        /* \"contracts/SmartContractWallet.sol\":718:909  function setGaurdian(address _guardians, bool _isGuardian) public {... */\n      pop\n      pop\n      jump\t// out\n        /* \"contracts/SmartContractWallet.sol\":304:344  mapping(address => uint)public allowence */\n    tag_45:\n      mstore(0x20, 0x01)\n      dup1\n      0x00\n      mstore\n      keccak256(0x00, 0x40)\n      0x00\n      swap2\n      pop\n      swap1\n      pop\n      sload\n      dup2\n      jump\t// out\n        /* \"contracts/SmartContractWallet.sol\":915:1489  function proposeNewOwner(address payable _newOwner) public {... */\n    tag_52:\n        /* \"contracts/SmartContractWallet.sol\":992:1001  guardians */\n      0x03\n        /* \"contracts/SmartContractWallet.sol\":992:1013  guardians[msg.sender] */\n      0x00\n        /* \"contracts/SmartContractWallet.sol\":1002:1012  msg.sender */\n      caller\n        /* \"contracts/SmartContractWallet.sol\":992:1013  guardians[msg.sender] */\n      0xffffffffffffffffffffffffffffffffffffffff\n      and\n      0xffffffffffffffffffffffffffffffffffffffff\n      and\n      dup2\n      mstore\n      0x20\n      add\n      swap1\n      dup2\n      mstore\n      0x20\n      add\n      0x00\n      keccak256\n      0x00\n      swap1\n      sload\n      swap1\n      0x0100\n      exp\n      swap1\n      div\n      0xff\n      and\n        /* \"contracts/SmartContractWallet.sol\":984:1062  require(guardians[msg.sender],\"You are not guardian of this wallet, aborting\") */\n      tag_74\n      jumpi\n      mload(0x40)\n      0x08c379a000000000000000000000000000000000000000000000000000000000\n      dup2\n      mstore\n      0x04\n      add\n      tag_75\n      swap1\n      tag_76\n      jump\t// in\n    tag_75:\n      mload(0x40)\n      dup1\n      swap2\n      sub\n      swap1\n      revert\n    tag_74:\n        /* \"contracts/SmartContractWallet.sol\":1133:1138  false */\n      0x00\n        /* \"contracts/SmartContractWallet.sol\":1080:1138  nextOwnerGuardianVotedBool[_newOwner][msg.sender] == false */\n      iszero\n      iszero\n        /* \"contracts/SmartContractWallet.sol\":1080:1106  nextOwnerGuardianVotedBool */\n      0x05\n        /* \"contracts/SmartContractWallet.sol\":1080:1117  nextOwnerGuardianVotedBool[_newOwner] */\n      0x00\n        /* \"contracts/SmartContractWallet.sol\":1107:1116  _newOwner */\n      dup4\n        /* \"contracts/SmartContractWallet.sol\":1080:1117  nextOwnerGuardianVotedBool[_newOwner] */\n      0xffffffffffffffffffffffffffffffffffffffff\n      and\n      0xffffffffffffffffffffffffffffffffffffffff\n      and\n      dup2\n      mstore\n      0x20\n      add\n      swap1\n      dup2\n      mstore\n      0x20\n      add\n      0x00\n      keccak256\n        /* \"contracts/SmartContractWallet.sol\":1080:1129  nextOwnerGuardianVotedBool[_newOwner][msg.sender] */\n      0x00\n        /* \"contracts/SmartContractWallet.sol\":1118:1128  msg.sender */\n      caller\n        /* \"contracts/SmartContractWallet.sol\":1080:1129  nextOwnerGuardianVotedBool[_newOwner][msg.sender] */\n      0xffffffffffffffffffffffffffffffffffffffff\n      and\n      0xffffffffffffffffffffffffffffffffffffffff\n      and\n      dup2\n      mstore\n      0x20\n      add\n      swap1\n      dup2\n      mstore\n      0x20\n      add\n      0x00\n      keccak256\n      0x00\n      swap1\n      sload\n      swap1\n      0x0100\n      exp\n      swap1\n      div\n      0xff\n      and\n        /* \"contracts/SmartContractWallet.sol\":1080:1138  nextOwnerGuardianVotedBool[_newOwner][msg.sender] == false */\n      iszero\n      iszero\n      eq\n        /* \"contracts/SmartContractWallet.sol\":1072:1174  require(nextOwnerGuardianVotedBool[_newOwner][msg.sender] == false, \"You are already voted, aborting\") */\n      tag_77\n      jumpi\n      mload(0x40)\n      0x08c379a000000000000000000000000000000000000000000000000000000000\n      dup2\n      mstore\n      0x04\n      add\n      tag_78\n      swap1\n      tag_79\n      jump\t// in\n    tag_78:\n      mload(0x40)\n      dup1\n      swap2\n      sub\n      swap1\n      revert\n    tag_77:\n        /* \"contracts/SmartContractWallet.sol\":1200:1209  nextOwner */\n      0x04\n      0x00\n      swap1\n      sload\n      swap1\n      0x0100\n      exp\n      swap1\n      div\n      0xffffffffffffffffffffffffffffffffffffffff\n      and\n        /* \"contracts/SmartContractWallet.sol\":1187:1209  _newOwner != nextOwner */\n      0xffffffffffffffffffffffffffffffffffffffff\n      and\n        /* \"contracts/SmartContractWallet.sol\":1187:1196  _newOwner */\n      dup2\n        /* \"contracts/SmartContractWallet.sol\":1187:1209  _newOwner != nextOwner */\n      0xffffffffffffffffffffffffffffffffffffffff\n      and\n      eq\n        /* \"contracts/SmartContractWallet.sol\":1184:1293  if(_newOwner != nextOwner){... */\n      tag_80\n      jumpi\n        /* \"contracts/SmartContractWallet.sol\":1236:1245  _newOwner */\n      dup1\n        /* \"contracts/SmartContractWallet.sol\":1224:1233  nextOwner */\n      0x04\n      0x00\n        /* \"contracts/SmartContractWallet.sol\":1224:1245  nextOwner = _newOwner */\n      0x0100\n      exp\n      dup2\n      sload\n      dup2\n      0xffffffffffffffffffffffffffffffffffffffff\n      mul\n      not\n      and\n      swap1\n      dup4\n      0xffffffffffffffffffffffffffffffffffffffff\n      and\n      mul\n      or\n      swap1\n      sstore\n      pop\n        /* \"contracts/SmartContractWallet.sol\":1281:1282  0 */\n      0x00\n        /* \"contracts/SmartContractWallet.sol\":1259:1278  guardiansResetCount */\n      0x06\n        /* \"contracts/SmartContractWallet.sol\":1259:1282  guardiansResetCount = 0 */\n      dup2\n      swap1\n      sstore\n      pop\n        /* \"contracts/SmartContractWallet.sol\":1184:1293  if(_newOwner != nextOwner){... */\n    tag_80:\n        /* \"contracts/SmartContractWallet.sol\":1302:1321  guardiansResetCount */\n      0x06\n      0x00\n        /* \"contracts/SmartContractWallet.sol\":1302:1323  guardiansResetCount++ */\n      dup2\n      sload\n      dup1\n      swap3\n      swap2\n      swap1\n      tag_81\n      swap1\n      tag_82\n      jump\t// in\n    tag_81:\n      swap2\n      swap1\n      pop\n      sstore\n      pop\n        /* \"contracts/SmartContractWallet.sol\":646:647  3 */\n      0x03\n        /* \"contracts/SmartContractWallet.sol\":1338:1357  guardiansResetCount */\n      sload(0x06)\n        /* \"contracts/SmartContractWallet.sol\":1338:1393  guardiansResetCount >= confirmationFromGuardianForReset */\n      lt\n        /* \"contracts/SmartContractWallet.sol\":1334:1483  if (guardiansResetCount >= confirmationFromGuardianForReset) {... */\n      tag_83\n      jumpi\n        /* \"contracts/SmartContractWallet.sol\":1417:1426  nextOwner */\n      0x04\n      0x00\n      swap1\n      sload\n      swap1\n      0x0100\n      exp\n      swap1\n      div\n      0xffffffffffffffffffffffffffffffffffffffff\n      and\n        /* \"contracts/SmartContractWallet.sol\":1409:1414  owner */\n      0x00\n      dup1\n        /* \"contracts/SmartContractWallet.sol\":1409:1426  owner = nextOwner */\n      0x0100\n      exp\n      dup2\n      sload\n      dup2\n      0xffffffffffffffffffffffffffffffffffffffff\n      mul\n      not\n      and\n      swap1\n      dup4\n      0xffffffffffffffffffffffffffffffffffffffff\n      and\n      mul\n      or\n      swap1\n      sstore\n      pop\n        /* \"contracts/SmartContractWallet.sol\":1469:1470  0 */\n      0x00\n        /* \"contracts/SmartContractWallet.sol\":1440:1449  nextOwner */\n      0x04\n      0x00\n        /* \"contracts/SmartContractWallet.sol\":1440:1472  nextOwner = payable (address(0)) */\n      0x0100\n      exp\n      dup2\n      sload\n      dup2\n      0xffffffffffffffffffffffffffffffffffffffff\n      mul\n      not\n      and\n      swap1\n      dup4\n      0xffffffffffffffffffffffffffffffffffffffff\n      and\n      mul\n      or\n      swap1\n      sstore\n      pop\n        /* \"contracts/SmartContractWallet.sol\":1334:1483  if (guardiansResetCount >= confirmationFromGuardianForReset) {... */\n    tag_83:\n        /* \"contracts/SmartContractWallet.sol\":915:1489  function proposeNewOwner(address payable _newOwner) public {... */\n      pop\n      jump\t// out\n        /* \"contracts/SmartContractWallet.sol\":1821:2502  function transfer(address payable _to, uint _amount, bytes memory _payload) public returns (bytes memory){... */\n    tag_57:\n        /* \"contracts/SmartContractWallet.sol\":1913:1925  bytes memory */\n      0x60\n        /* \"contracts/SmartContractWallet.sol\":1958:1963  owner */\n      0x00\n      dup1\n      sload\n      swap1\n      0x0100\n      exp\n      swap1\n      div\n      0xffffffffffffffffffffffffffffffffffffffff\n      and\n        /* \"contracts/SmartContractWallet.sol\":1944:1963  msg.sender == owner */\n      0xffffffffffffffffffffffffffffffffffffffff\n      and\n        /* \"contracts/SmartContractWallet.sol\":1944:1954  msg.sender */\n      caller\n        /* \"contracts/SmartContractWallet.sol\":1944:1963  msg.sender == owner */\n      0xffffffffffffffffffffffffffffffffffffffff\n      and\n      eq\n        /* \"contracts/SmartContractWallet.sol\":1936:1999  require(msg.sender == owner, \"You are not the owner, aborting\") */\n      tag_85\n      jumpi\n      mload(0x40)\n      0x08c379a000000000000000000000000000000000000000000000000000000000\n      dup2\n      mstore\n      0x04\n      add\n      tag_86\n      swap1\n      tag_67\n      jump\t// in\n    tag_86:\n      mload(0x40)\n      dup1\n      swap2\n      sub\n      swap1\n      revert\n    tag_85:\n        /* \"contracts/SmartContractWallet.sol\":2026:2031  owner */\n      0x00\n      dup1\n      sload\n      swap1\n      0x0100\n      exp\n      swap1\n      div\n      0xffffffffffffffffffffffffffffffffffffffff\n      and\n        /* \"contracts/SmartContractWallet.sol\":2012:2031  msg.sender != owner */\n      0xffffffffffffffffffffffffffffffffffffffff\n      and\n        /* \"contracts/SmartContractWallet.sol\":2012:2022  msg.sender */\n      caller\n        /* \"contracts/SmartContractWallet.sol\":2012:2031  msg.sender != owner */\n      0xffffffffffffffffffffffffffffffffffffffff\n      and\n      eq\n        /* \"contracts/SmartContractWallet.sol\":2009:2320  if(msg.sender != owner){... */\n      tag_87\n      jumpi\n        /* \"contracts/SmartContractWallet.sol\":2054:2069  isAllowedToSend */\n      0x02\n        /* \"contracts/SmartContractWallet.sol\":2054:2081  isAllowedToSend[msg.sender] */\n      0x00\n        /* \"contracts/SmartContractWallet.sol\":2070:2080  msg.sender */\n      caller\n        /* \"contracts/SmartContractWallet.sol\":2054:2081  isAllowedToSend[msg.sender] */\n      0xffffffffffffffffffffffffffffffffffffffff\n      and\n      0xffffffffffffffffffffffffffffffffffffffff\n      and\n      dup2\n      mstore\n      0x20\n      add\n      swap1\n      dup2\n      mstore\n      0x20\n      add\n      0x00\n      keccak256\n      0x00\n      swap1\n      sload\n      swap1\n      0x0100\n      exp\n      swap1\n      div\n      0xff\n      and\n        /* \"contracts/SmartContractWallet.sol\":2046:2143  require(isAllowedToSend[msg.sender], \"You are allowed to send anything from this smart contract\") */\n      tag_88\n      jumpi\n      mload(0x40)\n      0x08c379a000000000000000000000000000000000000000000000000000000000\n      dup2\n      mstore\n      0x04\n      add\n      tag_89\n      swap1\n      tag_90\n      jump\t// in\n    tag_89:\n      mload(0x40)\n      dup1\n      swap2\n      sub\n      swap1\n      revert\n    tag_88:\n        /* \"contracts/SmartContractWallet.sol\":2189:2196  _amount */\n      dup3\n        /* \"contracts/SmartContractWallet.sol\":2165:2174  allowence */\n      0x01\n        /* \"contracts/SmartContractWallet.sol\":2165:2186  allowence[msg.sender] */\n      0x00\n        /* \"contracts/SmartContractWallet.sol\":2175:2185  msg.sender */\n      caller\n        /* \"contracts/SmartContractWallet.sol\":2165:2186  allowence[msg.sender] */\n      0xffffffffffffffffffffffffffffffffffffffff\n      and\n      0xffffffffffffffffffffffffffffffffffffffff\n      and\n      dup2\n      mstore\n      0x20\n      add\n      swap1\n      dup2\n      mstore\n      0x20\n      add\n      0x00\n      keccak256\n      sload\n        /* \"contracts/SmartContractWallet.sol\":2165:2196  allowence[msg.sender]>= _amount */\n      lt\n      iszero\n        /* \"contracts/SmartContractWallet.sol\":2157:2262  require(allowence[msg.sender]>= _amount, \"You are trying to send more than you are allowed to, aborting\") */\n      tag_91\n      jumpi\n      mload(0x40)\n      0x08c379a000000000000000000000000000000000000000000000000000000000\n      dup2\n      mstore\n      0x04\n      add\n      tag_92\n      swap1\n      tag_93\n      jump\t// in\n    tag_92:\n      mload(0x40)\n      dup1\n      swap2\n      sub\n      swap1\n      revert\n    tag_91:\n        /* \"contracts/SmartContractWallet.sol\":2302:2309  _amount */\n      dup3\n        /* \"contracts/SmartContractWallet.sol\":2277:2286  allowence */\n      0x01\n        /* \"contracts/SmartContractWallet.sol\":2277:2298  allowence[msg.sender] */\n      0x00\n        /* \"contracts/SmartContractWallet.sol\":2287:2297  msg.sender */\n      caller\n        /* \"contracts/SmartContractWallet.sol\":2277:2298  allowence[msg.sender] */\n      0xffffffffffffffffffffffffffffffffffffffff\n      and\n      0xffffffffffffffffffffffffffffffffffffffff\n      and\n      dup2\n      mstore\n      0x20\n      add\n      swap1\n      dup2\n      mstore\n      0x20\n      add\n      0x00\n      keccak256\n      0x00\n        /* \"contracts/SmartContractWallet.sol\":2277:2309  allowence[msg.sender] -= _amount */\n      dup3\n      dup3\n      sload\n      tag_94\n      swap2\n      swap1\n      tag_95\n      jump\t// in\n    tag_94:\n      swap3\n      pop\n      pop\n      dup2\n      swap1\n      sstore\n      pop\n        /* \"contracts/SmartContractWallet.sol\":2009:2320  if(msg.sender != owner){... */\n    tag_87:\n        /* \"contracts/SmartContractWallet.sol\":2331:2343  bool success */\n      0x00\n        /* \"contracts/SmartContractWallet.sol\":2345:2368  bytes memory returnData */\n      dup1\n        /* \"contracts/SmartContractWallet.sol\":2371:2374  _to */\n      dup6\n        /* \"contracts/SmartContractWallet.sol\":2371:2379  _to.call */\n      0xffffffffffffffffffffffffffffffffffffffff\n      and\n        /* \"contracts/SmartContractWallet.sol\":2387:2394  _amount */\n      dup6\n        /* \"contracts/SmartContractWallet.sol\":2396:2404  _payload */\n      dup6\n        /* \"contracts/SmartContractWallet.sol\":2371:2405  _to.call{value: _amount}(_payload) */\n      mload(0x40)\n      tag_96\n      swap2\n      swap1\n      tag_97\n      jump\t// in\n    tag_96:\n      0x00\n      mload(0x40)\n      dup1\n      dup4\n      sub\n      dup2\n      dup6\n      dup8\n      gas\n      call\n      swap3\n      pop\n      pop\n      pop\n      returndatasize\n      dup1\n      0x00\n      dup2\n      eq\n      tag_100\n      jumpi\n      mload(0x40)\n      swap2\n      pop\n      and(add(returndatasize, 0x3f), not(0x1f))\n      dup3\n      add\n      0x40\n      mstore\n      returndatasize\n      dup3\n      mstore\n      returndatasize\n      0x00\n      0x20\n      dup5\n      add\n      returndatacopy\n      jump(tag_99)\n    tag_100:\n      0x60\n      swap2\n      pop\n    tag_99:\n      pop\n        /* \"contracts/SmartContractWallet.sol\":2330:2405  (bool success, bytes memory returnData) =_to.call{value: _amount}(_payload) */\n      swap2\n      pop\n      swap2\n      pop\n        /* \"contracts/SmartContractWallet.sol\":2423:2430  success */\n      dup2\n        /* \"contracts/SmartContractWallet.sol\":2415:2468  require(success, \"Aborting, call was not successful\") */\n      tag_101\n      jumpi\n      mload(0x40)\n      0x08c379a000000000000000000000000000000000000000000000000000000000\n      dup2\n      mstore\n      0x04\n      add\n      tag_102\n      swap1\n      tag_103\n      jump\t// in\n    tag_102:\n      mload(0x40)\n      dup1\n      swap2\n      sub\n      swap1\n      revert\n    tag_101:\n        /* \"contracts/SmartContractWallet.sol\":2485:2495  returnData */\n      dup1\n        /* \"contracts/SmartContractWallet.sol\":2478:2495  return returnData */\n      swap3\n      pop\n      pop\n      pop\n        /* \"contracts/SmartContractWallet.sol\":1821:2502  function transfer(address payable _to, uint _amount, bytes memory _payload) public returns (bytes memory){... */\n      swap4\n      swap3\n      pop\n      pop\n      pop\n      jump\t// out\n        /* \"contracts/SmartContractWallet.sol\":590:647  uint public constant confirmationFromGuardianForReset = 3 */\n    tag_62:\n        /* \"contracts/SmartContractWallet.sol\":646:647  3 */\n      0x03\n        /* \"contracts/SmartContractWallet.sol\":590:647  uint public constant confirmationFromGuardianForReset = 3 */\n      dup2\n      jump\t// out\n        /* \"#utility.yul\":7:82   */\n    tag_104:\n        /* \"#utility.yul\":40:46   */\n      0x00\n        /* \"#utility.yul\":73:75   */\n      0x40\n        /* \"#utility.yul\":67:76   */\n      mload\n        /* \"#utility.yul\":57:76   */\n      swap1\n      pop\n        /* \"#utility.yul\":7:82   */\n      swap1\n      jump\t// out\n        /* \"#utility.yul\":88:205   */\n    tag_105:\n        /* \"#utility.yul\":197:198   */\n      0x00\n        /* \"#utility.yul\":194:195   */\n      dup1\n        /* \"#utility.yul\":187:199   */\n      revert\n        /* \"#utility.yul\":211:328   */\n    tag_106:\n        /* \"#utility.yul\":320:321   */\n      0x00\n        /* \"#utility.yul\":317:318   */\n      dup1\n        /* \"#utility.yul\":310:322   */\n      revert\n        /* \"#utility.yul\":334:460   */\n    tag_107:\n        /* \"#utility.yul\":371:378   */\n      0x00\n        /* \"#utility.yul\":411:453   */\n      0xffffffffffffffffffffffffffffffffffffffff\n        /* \"#utility.yul\":404:409   */\n      dup3\n        /* \"#utility.yul\":400:454   */\n      and\n        /* \"#utility.yul\":389:454   */\n      swap1\n      pop\n        /* \"#utility.yul\":334:460   */\n      swap2\n      swap1\n      pop\n      jump\t// out\n        /* \"#utility.yul\":466:562   */\n    tag_108:\n        /* \"#utility.yul\":503:510   */\n      0x00\n        /* \"#utility.yul\":532:556   */\n      tag_159\n        /* \"#utility.yul\":550:555   */\n      dup3\n        /* \"#utility.yul\":532:556   */\n      tag_107\n      jump\t// in\n    tag_159:\n        /* \"#utility.yul\":521:556   */\n      swap1\n      pop\n        /* \"#utility.yul\":466:562   */\n      swap2\n      swap1\n      pop\n      jump\t// out\n        /* \"#utility.yul\":568:690   */\n    tag_109:\n        /* \"#utility.yul\":641:665   */\n      tag_161\n        /* \"#utility.yul\":659:664   */\n      dup2\n        /* \"#utility.yul\":641:665   */\n      tag_108\n      jump\t// in\n    tag_161:\n        /* \"#utility.yul\":634:639   */\n      dup2\n        /* \"#utility.yul\":631:666   */\n      eq\n        /* \"#utility.yul\":621:684   */\n      tag_162\n      jumpi\n        /* \"#utility.yul\":680:681   */\n      0x00\n        /* \"#utility.yul\":677:678   */\n      dup1\n        /* \"#utility.yul\":670:682   */\n      revert\n        /* \"#utility.yul\":621:684   */\n    tag_162:\n        /* \"#utility.yul\":568:690   */\n      pop\n      jump\t// out\n        /* \"#utility.yul\":696:835   */\n    tag_110:\n        /* \"#utility.yul\":742:747   */\n      0x00\n        /* \"#utility.yul\":780:786   */\n      dup2\n        /* \"#utility.yul\":767:787   */\n      calldataload\n        /* \"#utility.yul\":758:787   */\n      swap1\n      pop\n        /* \"#utility.yul\":796:829   */\n      tag_164\n        /* \"#utility.yul\":823:828   */\n      dup2\n        /* \"#utility.yul\":796:829   */\n      tag_109\n      jump\t// in\n    tag_164:\n        /* \"#utility.yul\":696:835   */\n      swap3\n      swap2\n      pop\n      pop\n      jump\t// out\n        /* \"#utility.yul\":841:1170   */\n    tag_18:\n        /* \"#utility.yul\":900:906   */\n      0x00\n        /* \"#utility.yul\":949:951   */\n      0x20\n        /* \"#utility.yul\":937:946   */\n      dup3\n        /* \"#utility.yul\":928:935   */\n      dup5\n        /* \"#utility.yul\":924:947   */\n      sub\n        /* \"#utility.yul\":920:952   */\n      slt\n        /* \"#utility.yul\":917:1036   */\n      iszero\n      tag_166\n      jumpi\n        /* \"#utility.yul\":955:1034   */\n      tag_167\n      tag_105\n      jump\t// in\n    tag_167:\n        /* \"#utility.yul\":917:1036   */\n    tag_166:\n        /* \"#utility.yul\":1075:1076   */\n      0x00\n        /* \"#utility.yul\":1100:1153   */\n      tag_168\n        /* \"#utility.yul\":1145:1152   */\n      dup5\n        /* \"#utility.yul\":1136:1142   */\n      dup3\n        /* \"#utility.yul\":1125:1134   */\n      dup6\n        /* \"#utility.yul\":1121:1143   */\n      add\n        /* \"#utility.yul\":1100:1153   */\n      tag_110\n      jump\t// in\n    tag_168:\n        /* \"#utility.yul\":1090:1153   */\n      swap2\n      pop\n        /* \"#utility.yul\":1046:1163   */\n      pop\n        /* \"#utility.yul\":841:1170   */\n      swap3\n      swap2\n      pop\n      pop\n      jump\t// out\n        /* \"#utility.yul\":1176:1266   */\n    tag_111:\n        /* \"#utility.yul\":1210:1217   */\n      0x00\n        /* \"#utility.yul\":1253:1258   */\n      dup2\n        /* \"#utility.yul\":1246:1259   */\n      iszero\n        /* \"#utility.yul\":1239:1260   */\n      iszero\n        /* \"#utility.yul\":1228:1260   */\n      swap1\n      pop\n        /* \"#utility.yul\":1176:1266   */\n      swap2\n      swap1\n      pop\n      jump\t// out\n        /* \"#utility.yul\":1272:1381   */\n    tag_112:\n        /* \"#utility.yul\":1353:1374   */\n      tag_171\n        /* \"#utility.yul\":1368:1373   */\n      dup2\n        /* \"#utility.yul\":1353:1374   */\n      tag_111\n      jump\t// in\n    tag_171:\n        /* \"#utility.yul\":1348:1351   */\n      dup3\n        /* \"#utility.yul\":1341:1375   */\n      mstore\n        /* \"#utility.yul\":1272:1381   */\n      pop\n      pop\n      jump\t// out\n        /* \"#utility.yul\":1387:1597   */\n    tag_21:\n        /* \"#utility.yul\":1474:1478   */\n      0x00\n        /* \"#utility.yul\":1512:1514   */\n      0x20\n        /* \"#utility.yul\":1501:1510   */\n      dup3\n        /* \"#utility.yul\":1497:1515   */\n      add\n        /* \"#utility.yul\":1489:1515   */\n      swap1\n      pop\n        /* \"#utility.yul\":1525:1590   */\n      tag_173\n        /* \"#utility.yul\":1587:1588   */\n      0x00\n        /* \"#utility.yul\":1576:1585   */\n      dup4\n        /* \"#utility.yul\":1572:1589   */\n      add\n        /* \"#utility.yul\":1563:1569   */\n      dup5\n        /* \"#utility.yul\":1525:1590   */\n      tag_112\n      jump\t// in\n    tag_173:\n        /* \"#utility.yul\":1387:1597   */\n      swap3\n      swap2\n      pop\n      pop\n      jump\t// out\n        /* \"#utility.yul\":1603:1680   */\n    tag_113:\n        /* \"#utility.yul\":1640:1647   */\n      0x00\n        /* \"#utility.yul\":1669:1674   */\n      dup2\n        /* \"#utility.yul\":1658:1674   */\n      swap1\n      pop\n        /* \"#utility.yul\":1603:1680   */\n      swap2\n      swap1\n      pop\n      jump\t// out\n        /* \"#utility.yul\":1686:1808   */\n    tag_114:\n        /* \"#utility.yul\":1759:1783   */\n      tag_176\n        /* \"#utility.yul\":1777:1782   */\n      dup2\n        /* \"#utility.yul\":1759:1783   */\n      tag_113\n      jump\t// in\n    tag_176:\n        /* \"#utility.yul\":1752:1757   */\n      dup2\n        /* \"#utility.yul\":1749:1784   */\n      eq\n        /* \"#utility.yul\":1739:1802   */\n      tag_177\n      jumpi\n        /* \"#utility.yul\":1798:1799   */\n      0x00\n        /* \"#utility.yul\":1795:1796   */\n      dup1\n        /* \"#utility.yul\":1788:1800   */\n      revert\n        /* \"#utility.yul\":1739:1802   */\n    tag_177:\n        /* \"#utility.yul\":1686:1808   */\n      pop\n      jump\t// out\n        /* \"#utility.yul\":1814:1953   */\n    tag_115:\n        /* \"#utility.yul\":1860:1865   */\n      0x00\n        /* \"#utility.yul\":1898:1904   */\n      dup2\n        /* \"#utility.yul\":1885:1905   */\n      calldataload\n        /* \"#utility.yul\":1876:1905   */\n      swap1\n      pop\n        /* \"#utility.yul\":1914:1947   */\n      tag_179\n        /* \"#utility.yul\":1941:1946   */\n      dup2\n        /* \"#utility.yul\":1914:1947   */\n      tag_114\n      jump\t// in\n    tag_179:\n        /* \"#utility.yul\":1814:1953   */\n      swap3\n      swap2\n      pop\n      pop\n      jump\t// out\n        /* \"#utility.yul\":1959:2433   */\n    tag_30:\n        /* \"#utility.yul\":2027:2033   */\n      0x00\n        /* \"#utility.yul\":2035:2041   */\n      dup1\n        /* \"#utility.yul\":2084:2086   */\n      0x40\n        /* \"#utility.yul\":2072:2081   */\n      dup4\n        /* \"#utility.yul\":2063:2070   */\n      dup6\n        /* \"#utility.yul\":2059:2082   */\n      sub\n        /* \"#utility.yul\":2055:2087   */\n      slt\n        /* \"#utility.yul\":2052:2171   */\n      iszero\n      tag_181\n      jumpi\n        /* \"#utility.yul\":2090:2169   */\n      tag_182\n      tag_105\n      jump\t// in\n    tag_182:\n        /* \"#utility.yul\":2052:2171   */\n    tag_181:\n        /* \"#utility.yul\":2210:2211   */\n      0x00\n        /* \"#utility.yul\":2235:2288   */\n      tag_183\n        /* \"#utility.yul\":2280:2287   */\n      dup6\n        /* \"#utility.yul\":2271:2277   */\n      dup3\n        /* \"#utility.yul\":2260:2269   */\n      dup7\n        /* \"#utility.yul\":2256:2278   */\n      add\n        /* \"#utility.yul\":2235:2288   */\n      tag_110\n      jump\t// in\n    tag_183:\n        /* \"#utility.yul\":2225:2288   */\n      swap3\n      pop\n        /* \"#utility.yul\":2181:2298   */\n      pop\n        /* \"#utility.yul\":2337:2339   */\n      0x20\n        /* \"#utility.yul\":2363:2416   */\n      tag_184\n        /* \"#utility.yul\":2408:2415   */\n      dup6\n        /* \"#utility.yul\":2399:2405   */\n      dup3\n        /* \"#utility.yul\":2388:2397   */\n      dup7\n        /* \"#utility.yul\":2384:2406   */\n      add\n        /* \"#utility.yul\":2363:2416   */\n      tag_115\n      jump\t// in\n    tag_184:\n        /* \"#utility.yul\":2353:2416   */\n      swap2\n      pop\n        /* \"#utility.yul\":2308:2426   */\n      pop\n        /* \"#utility.yul\":1959:2433   */\n      swap3\n      pop\n      swap3\n      swap1\n      pop\n      jump\t// out\n        /* \"#utility.yul\":2439:2543   */\n    tag_116:\n        /* \"#utility.yul\":2484:2491   */\n      0x00\n        /* \"#utility.yul\":2513:2537   */\n      tag_186\n        /* \"#utility.yul\":2531:2536   */\n      dup3\n        /* \"#utility.yul\":2513:2537   */\n      tag_107\n      jump\t// in\n    tag_186:\n        /* \"#utility.yul\":2502:2537   */\n      swap1\n      pop\n        /* \"#utility.yul\":2439:2543   */\n      swap2\n      swap1\n      pop\n      jump\t// out\n        /* \"#utility.yul\":2549:2691   */\n    tag_117:\n        /* \"#utility.yul\":2652:2684   */\n      tag_188\n        /* \"#utility.yul\":2678:2683   */\n      dup2\n        /* \"#utility.yul\":2652:2684   */\n      tag_116\n      jump\t// in\n    tag_188:\n        /* \"#utility.yul\":2647:2650   */\n      dup3\n        /* \"#utility.yul\":2640:2685   */\n      mstore\n        /* \"#utility.yul\":2549:2691   */\n      pop\n      pop\n      jump\t// out\n        /* \"#utility.yul\":2697:2951   */\n    tag_36:\n        /* \"#utility.yul\":2806:2810   */\n      0x00\n        /* \"#utility.yul\":2844:2846   */\n      0x20\n        /* \"#utility.yul\":2833:2842   */\n      dup3\n        /* \"#utility.yul\":2829:2847   */\n      add\n        /* \"#utility.yul\":2821:2847   */\n      swap1\n      pop\n        /* \"#utility.yul\":2857:2944   */\n      tag_190\n        /* \"#utility.yul\":2941:2942   */\n      0x00\n        /* \"#utility.yul\":2930:2939   */\n      dup4\n        /* \"#utility.yul\":2926:2943   */\n      add\n        /* \"#utility.yul\":2917:2923   */\n      dup5\n        /* \"#utility.yul\":2857:2944   */\n      tag_117\n      jump\t// in\n    tag_190:\n        /* \"#utility.yul\":2697:2951   */\n      swap3\n      swap2\n      pop\n      pop\n      jump\t// out\n        /* \"#utility.yul\":2957:3073   */\n    tag_118:\n        /* \"#utility.yul\":3027:3048   */\n      tag_192\n        /* \"#utility.yul\":3042:3047   */\n      dup2\n        /* \"#utility.yul\":3027:3048   */\n      tag_111\n      jump\t// in\n    tag_192:\n        /* \"#utility.yul\":3020:3025   */\n      dup2\n        /* \"#utility.yul\":3017:3049   */\n      eq\n        /* \"#utility.yul\":3007:3067   */\n      tag_193\n      jumpi\n        /* \"#utility.yul\":3063:3064   */\n      0x00\n        /* \"#utility.yul\":3060:3061   */\n      dup1\n        /* \"#utility.yul\":3053:3065   */\n      revert\n        /* \"#utility.yul\":3007:3067   */\n    tag_193:\n        /* \"#utility.yul\":2957:3073   */\n      pop\n      jump\t// out\n        /* \"#utility.yul\":3079:3212   */\n    tag_119:\n        /* \"#utility.yul\":3122:3127   */\n      0x00\n        /* \"#utility.yul\":3160:3166   */\n      dup2\n        /* \"#utility.yul\":3147:3167   */\n      calldataload\n        /* \"#utility.yul\":3138:3167   */\n      swap1\n      pop\n        /* \"#utility.yul\":3176:3206   */\n      tag_195\n        /* \"#utility.yul\":3200:3205   */\n      dup2\n        /* \"#utility.yul\":3176:3206   */\n      tag_118\n      jump\t// in\n    tag_195:\n        /* \"#utility.yul\":3079:3212   */\n      swap3\n      swap2\n      pop\n      pop\n      jump\t// out\n        /* \"#utility.yul\":3218:3686   */\n    tag_40:\n        /* \"#utility.yul\":3283:3289   */\n      0x00\n        /* \"#utility.yul\":3291:3297   */\n      dup1\n        /* \"#utility.yul\":3340:3342   */\n      0x40\n        /* \"#utility.yul\":3328:3337   */\n      dup4\n        /* \"#utility.yul\":3319:3326   */\n      dup6\n        /* \"#utility.yul\":3315:3338   */\n      sub\n        /* \"#utility.yul\":3311:3343   */\n      slt\n        /* \"#utility.yul\":3308:3427   */\n      iszero\n      tag_197\n      jumpi\n        /* \"#utility.yul\":3346:3425   */\n      tag_198\n      tag_105\n      jump\t// in\n    tag_198:\n        /* \"#utility.yul\":3308:3427   */\n    tag_197:\n        /* \"#utility.yul\":3466:3467   */\n      0x00\n        /* \"#utility.yul\":3491:3544   */\n      tag_199\n        /* \"#utility.yul\":3536:3543   */\n      dup6\n        /* \"#utility.yul\":3527:3533   */\n      dup3\n        /* \"#utility.yul\":3516:3525   */\n      dup7\n        /* \"#utility.yul\":3512:3534   */\n      add\n        /* \"#utility.yul\":3491:3544   */\n      tag_110\n      jump\t// in\n    tag_199:\n        /* \"#utility.yul\":3481:3544   */\n      swap3\n      pop\n        /* \"#utility.yul\":3437:3554   */\n      pop\n        /* \"#utility.yul\":3593:3595   */\n      0x20\n        /* \"#utility.yul\":3619:3669   */\n      tag_200\n        /* \"#utility.yul\":3661:3668   */\n      dup6\n        /* \"#utility.yul\":3652:3658   */\n      dup3\n        /* \"#utility.yul\":3641:3650   */\n      dup7\n        /* \"#utility.yul\":3637:3659   */\n      add\n        /* \"#utility.yul\":3619:3669   */\n      tag_119\n      jump\t// in\n    tag_200:\n        /* \"#utility.yul\":3609:3669   */\n      swap2\n      pop\n        /* \"#utility.yul\":3564:3679   */\n      pop\n        /* \"#utility.yul\":3218:3686   */\n      swap3\n      pop\n      swap3\n      swap1\n      pop\n      jump\t// out\n        /* \"#utility.yul\":3692:3810   */\n    tag_120:\n        /* \"#utility.yul\":3779:3803   */\n      tag_202\n        /* \"#utility.yul\":3797:3802   */\n      dup2\n        /* \"#utility.yul\":3779:3803   */\n      tag_113\n      jump\t// in\n    tag_202:\n        /* \"#utility.yul\":3774:3777   */\n      dup3\n        /* \"#utility.yul\":3767:3804   */\n      mstore\n        /* \"#utility.yul\":3692:3810   */\n      pop\n      pop\n      jump\t// out\n        /* \"#utility.yul\":3816:4038   */\n    tag_47:\n        /* \"#utility.yul\":3909:3913   */\n      0x00\n        /* \"#utility.yul\":3947:3949   */\n      0x20\n        /* \"#utility.yul\":3936:3945   */\n      dup3\n        /* \"#utility.yul\":3932:3950   */\n      add\n        /* \"#utility.yul\":3924:3950   */\n      swap1\n      pop\n        /* \"#utility.yul\":3960:4031   */\n      tag_204\n        /* \"#utility.yul\":4028:4029   */\n      0x00\n        /* \"#utility.yul\":4017:4026   */\n      dup4\n        /* \"#utility.yul\":4013:4030   */\n      add\n        /* \"#utility.yul\":4004:4010   */\n      dup5\n        /* \"#utility.yul\":3960:4031   */\n      tag_120\n      jump\t// in\n    tag_204:\n        /* \"#utility.yul\":3816:4038   */\n      swap3\n      swap2\n      pop\n      pop\n      jump\t// out\n        /* \"#utility.yul\":4044:4182   */\n    tag_121:\n        /* \"#utility.yul\":4125:4157   */\n      tag_206\n        /* \"#utility.yul\":4151:4156   */\n      dup2\n        /* \"#utility.yul\":4125:4157   */\n      tag_116\n      jump\t// in\n    tag_206:\n        /* \"#utility.yul\":4118:4123   */\n      dup2\n        /* \"#utility.yul\":4115:4158   */\n      eq\n        /* \"#utility.yul\":4105:4176   */\n      tag_207\n      jumpi\n        /* \"#utility.yul\":4172:4173   */\n      0x00\n        /* \"#utility.yul\":4169:4170   */\n      dup1\n        /* \"#utility.yul\":4162:4174   */\n      revert\n        /* \"#utility.yul\":4105:4176   */\n    tag_207:\n        /* \"#utility.yul\":4044:4182   */\n      pop\n      jump\t// out\n        /* \"#utility.yul\":4188:4343   */\n    tag_122:\n        /* \"#utility.yul\":4242:4247   */\n      0x00\n        /* \"#utility.yul\":4280:4286   */\n      dup2\n        /* \"#utility.yul\":4267:4287   */\n      calldataload\n        /* \"#utility.yul\":4258:4287   */\n      swap1\n      pop\n        /* \"#utility.yul\":4296:4337   */\n      tag_209\n        /* \"#utility.yul\":4331:4336   */\n      dup2\n        /* \"#utility.yul\":4296:4337   */\n      tag_121\n      jump\t// in\n    tag_209:\n        /* \"#utility.yul\":4188:4343   */\n      swap3\n      swap2\n      pop\n      pop\n      jump\t// out\n        /* \"#utility.yul\":4349:4694   */\n    tag_51:\n        /* \"#utility.yul\":4416:4422   */\n      0x00\n        /* \"#utility.yul\":4465:4467   */\n      0x20\n        /* \"#utility.yul\":4453:4462   */\n      dup3\n        /* \"#utility.yul\":4444:4451   */\n      dup5\n        /* \"#utility.yul\":4440:4463   */\n      sub\n        /* \"#utility.yul\":4436:4468   */\n      slt\n        /* \"#utility.yul\":4433:4552   */\n      iszero\n      tag_211\n      jumpi\n        /* \"#utility.yul\":4471:4550   */\n      tag_212\n      tag_105\n      jump\t// in\n    tag_212:\n        /* \"#utility.yul\":4433:4552   */\n    tag_211:\n        /* \"#utility.yul\":4591:4592   */\n      0x00\n        /* \"#utility.yul\":4616:4677   */\n      tag_213\n        /* \"#utility.yul\":4669:4676   */\n      dup5\n        /* \"#utility.yul\":4660:4666   */\n      dup3\n        /* \"#utility.yul\":4649:4658   */\n      dup6\n        /* \"#utility.yul\":4645:4667   */\n      add\n        /* \"#utility.yul\":4616:4677   */\n      tag_122\n      jump\t// in\n    tag_213:\n        /* \"#utility.yul\":4606:4677   */\n      swap2\n      pop\n        /* \"#utility.yul\":4562:4687   */\n      pop\n        /* \"#utility.yul\":4349:4694   */\n      swap3\n      swap2\n      pop\n      pop\n      jump\t// out\n        /* \"#utility.yul\":4700:4817   */\n    tag_123:\n        /* \"#utility.yul\":4809:4810   */\n      0x00\n        /* \"#utility.yul\":4806:4807   */\n      dup1\n        /* \"#utility.yul\":4799:4811   */\n      revert\n        /* \"#utility.yul\":4823:4940   */\n    tag_124:\n        /* \"#utility.yul\":4932:4933   */\n      0x00\n        /* \"#utility.yul\":4929:4930   */\n      dup1\n        /* \"#utility.yul\":4922:4934   */\n      revert\n        /* \"#utility.yul\":4946:5048   */\n    tag_125:\n        /* \"#utility.yul\":4987:4993   */\n      0x00\n        /* \"#utility.yul\":5038:5040   */\n      0x1f\n        /* \"#utility.yul\":5034:5041   */\n      not\n        /* \"#utility.yul\":5029:5031   */\n      0x1f\n        /* \"#utility.yul\":5022:5027   */\n      dup4\n        /* \"#utility.yul\":5018:5032   */\n      add\n        /* \"#utility.yul\":5014:5042   */\n      and\n        /* \"#utility.yul\":5004:5042   */\n      swap1\n      pop\n        /* \"#utility.yul\":4946:5048   */\n      swap2\n      swap1\n      pop\n      jump\t// out\n        /* \"#utility.yul\":5054:5234   */\n    tag_126:\n        /* \"#utility.yul\":5102:5179   */\n      0x4e487b7100000000000000000000000000000000000000000000000000000000\n        /* \"#utility.yul\":5099:5100   */\n      0x00\n        /* \"#utility.yul\":5092:5180   */\n      mstore\n        /* \"#utility.yul\":5199:5203   */\n      0x41\n        /* \"#utility.yul\":5196:5197   */\n      0x04\n        /* \"#utility.yul\":5189:5204   */\n      mstore\n        /* \"#utility.yul\":5223:5227   */\n      0x24\n        /* \"#utility.yul\":5220:5221   */\n      0x00\n        /* \"#utility.yul\":5213:5228   */\n      revert\n        /* \"#utility.yul\":5240:5521   */\n    tag_127:\n        /* \"#utility.yul\":5323:5350   */\n      tag_219\n        /* \"#utility.yul\":5345:5349   */\n      dup3\n        /* \"#utility.yul\":5323:5350   */\n      tag_125\n      jump\t// in\n    tag_219:\n        /* \"#utility.yul\":5315:5321   */\n      dup2\n        /* \"#utility.yul\":5311:5351   */\n      add\n        /* \"#utility.yul\":5453:5459   */\n      dup2\n        /* \"#utility.yul\":5441:5451   */\n      dup2\n        /* \"#utility.yul\":5438:5460   */\n      lt\n        /* \"#utility.yul\":5417:5435   */\n      0xffffffffffffffff\n        /* \"#utility.yul\":5405:5415   */\n      dup3\n        /* \"#utility.yul\":5402:5436   */\n      gt\n        /* \"#utility.yul\":5399:5461   */\n      or\n        /* \"#utility.yul\":5396:5484   */\n      iszero\n      tag_220\n      jumpi\n        /* \"#utility.yul\":5464:5482   */\n      tag_221\n      tag_126\n      jump\t// in\n    tag_221:\n        /* \"#utility.yul\":5396:5484   */\n    tag_220:\n        /* \"#utility.yul\":5504:5514   */\n      dup1\n        /* \"#utility.yul\":5500:5502   */\n      0x40\n        /* \"#utility.yul\":5493:5515   */\n      mstore\n        /* \"#utility.yul\":5283:5521   */\n      pop\n        /* \"#utility.yul\":5240:5521   */\n      pop\n      pop\n      jump\t// out\n        /* \"#utility.yul\":5527:5656   */\n    tag_128:\n        /* \"#utility.yul\":5561:5567   */\n      0x00\n        /* \"#utility.yul\":5588:5608   */\n      tag_223\n      tag_104\n      jump\t// in\n    tag_223:\n        /* \"#utility.yul\":5578:5608   */\n      swap1\n      pop\n        /* \"#utility.yul\":5617:5650   */\n      tag_224\n        /* \"#utility.yul\":5645:5649   */\n      dup3\n        /* \"#utility.yul\":5637:5643   */\n      dup3\n        /* \"#utility.yul\":5617:5650   */\n      tag_127\n      jump\t// in\n    tag_224:\n        /* \"#utility.yul\":5527:5656   */\n      swap2\n      swap1\n      pop\n      jump\t// out\n        /* \"#utility.yul\":5662:5969   */\n    tag_129:\n        /* \"#utility.yul\":5723:5727   */\n      0x00\n        /* \"#utility.yul\":5813:5831   */\n      0xffffffffffffffff\n        /* \"#utility.yul\":5805:5811   */\n      dup3\n        /* \"#utility.yul\":5802:5832   */\n      gt\n        /* \"#utility.yul\":5799:5855   */\n      iszero\n      tag_226\n      jumpi\n        /* \"#utility.yul\":5835:5853   */\n      tag_227\n      tag_126\n      jump\t// in\n    tag_227:\n        /* \"#utility.yul\":5799:5855   */\n    tag_226:\n        /* \"#utility.yul\":5873:5902   */\n      tag_228\n        /* \"#utility.yul\":5895:5901   */\n      dup3\n        /* \"#utility.yul\":5873:5902   */\n      tag_125\n      jump\t// in\n    tag_228:\n        /* \"#utility.yul\":5865:5902   */\n      swap1\n      pop\n        /* \"#utility.yul\":5957:5961   */\n      0x20\n        /* \"#utility.yul\":5951:5955   */\n      dup2\n        /* \"#utility.yul\":5947:5962   */\n      add\n        /* \"#utility.yul\":5939:5962   */\n      swap1\n      pop\n        /* \"#utility.yul\":5662:5969   */\n      swap2\n      swap1\n      pop\n      jump\t// out\n        /* \"#utility.yul\":5975:6129   */\n    tag_130:\n        /* \"#utility.yul\":6059:6065   */\n      dup3\n        /* \"#utility.yul\":6054:6057   */\n      dup2\n        /* \"#utility.yul\":6049:6052   */\n      dup4\n        /* \"#utility.yul\":6036:6066   */\n      calldatacopy\n        /* \"#utility.yul\":6121:6122   */\n      0x00\n        /* \"#utility.yul\":6112:6118   */\n      dup4\n        /* \"#utility.yul\":6107:6110   */\n      dup4\n        /* \"#utility.yul\":6103:6119   */\n      add\n        /* \"#utility.yul\":6096:6123   */\n      mstore\n        /* \"#utility.yul\":5975:6129   */\n      pop\n      pop\n      pop\n      jump\t// out\n        /* \"#utility.yul\":6135:6545   */\n    tag_131:\n        /* \"#utility.yul\":6212:6217   */\n      0x00\n        /* \"#utility.yul\":6237:6302   */\n      tag_231\n        /* \"#utility.yul\":6253:6301   */\n      tag_232\n        /* \"#utility.yul\":6294:6300   */\n      dup5\n        /* \"#utility.yul\":6253:6301   */\n      tag_129\n      jump\t// in\n    tag_232:\n        /* \"#utility.yul\":6237:6302   */\n      tag_128\n      jump\t// in\n    tag_231:\n        /* \"#utility.yul\":6228:6302   */\n      swap1\n      pop\n        /* \"#utility.yul\":6325:6331   */\n      dup3\n        /* \"#utility.yul\":6318:6323   */\n      dup2\n        /* \"#utility.yul\":6311:6332   */\n      mstore\n        /* \"#utility.yul\":6363:6367   */\n      0x20\n        /* \"#utility.yul\":6356:6361   */\n      dup2\n        /* \"#utility.yul\":6352:6368   */\n      add\n        /* \"#utility.yul\":6401:6404   */\n      dup5\n        /* \"#utility.yul\":6392:6398   */\n      dup5\n        /* \"#utility.yul\":6387:6390   */\n      dup5\n        /* \"#utility.yul\":6383:6399   */\n      add\n        /* \"#utility.yul\":6380:6405   */\n      gt\n        /* \"#utility.yul\":6377:6489   */\n      iszero\n      tag_233\n      jumpi\n        /* \"#utility.yul\":6408:6487   */\n      tag_234\n      tag_124\n      jump\t// in\n    tag_234:\n        /* \"#utility.yul\":6377:6489   */\n    tag_233:\n        /* \"#utility.yul\":6498:6539   */\n      tag_235\n        /* \"#utility.yul\":6532:6538   */\n      dup5\n        /* \"#utility.yul\":6527:6530   */\n      dup3\n        /* \"#utility.yul\":6522:6525   */\n      dup6\n        /* \"#utility.yul\":6498:6539   */\n      tag_130\n      jump\t// in\n    tag_235:\n        /* \"#utility.yul\":6218:6545   */\n      pop\n        /* \"#utility.yul\":6135:6545   */\n      swap4\n      swap3\n      pop\n      pop\n      pop\n      jump\t// out\n        /* \"#utility.yul\":6564:6902   */\n    tag_132:\n        /* \"#utility.yul\":6619:6624   */\n      0x00\n        /* \"#utility.yul\":6668:6671   */\n      dup3\n        /* \"#utility.yul\":6661:6665   */\n      0x1f\n        /* \"#utility.yul\":6653:6659   */\n      dup4\n        /* \"#utility.yul\":6649:6666   */\n      add\n        /* \"#utility.yul\":6645:6672   */\n      slt\n        /* \"#utility.yul\":6635:6757   */\n      tag_237\n      jumpi\n        /* \"#utility.yul\":6676:6755   */\n      tag_238\n      tag_123\n      jump\t// in\n    tag_238:\n        /* \"#utility.yul\":6635:6757   */\n    tag_237:\n        /* \"#utility.yul\":6793:6799   */\n      dup2\n        /* \"#utility.yul\":6780:6800   */\n      calldataload\n        /* \"#utility.yul\":6818:6896   */\n      tag_239\n        /* \"#utility.yul\":6892:6895   */\n      dup5\n        /* \"#utility.yul\":6884:6890   */\n      dup3\n        /* \"#utility.yul\":6877:6881   */\n      0x20\n        /* \"#utility.yul\":6869:6875   */\n      dup7\n        /* \"#utility.yul\":6865:6882   */\n      add\n        /* \"#utility.yul\":6818:6896   */\n      tag_131\n      jump\t// in\n    tag_239:\n        /* \"#utility.yul\":6809:6896   */\n      swap2\n      pop\n        /* \"#utility.yul\":6625:6902   */\n      pop\n        /* \"#utility.yul\":6564:6902   */\n      swap3\n      swap2\n      pop\n      pop\n      jump\t// out\n        /* \"#utility.yul\":6908:7721   */\n    tag_56:\n        /* \"#utility.yul\":7002:7008   */\n      0x00\n        /* \"#utility.yul\":7010:7016   */\n      dup1\n        /* \"#utility.yul\":7018:7024   */\n      0x00\n        /* \"#utility.yul\":7067:7069   */\n      0x60\n        /* \"#utility.yul\":7055:7064   */\n      dup5\n        /* \"#utility.yul\":7046:7053   */\n      dup7\n        /* \"#utility.yul\":7042:7065   */\n      sub\n        /* \"#utility.yul\":7038:7070   */\n      slt\n        /* \"#utility.yul\":7035:7154   */\n      iszero\n      tag_241\n      jumpi\n        /* \"#utility.yul\":7073:7152   */\n      tag_242\n      tag_105\n      jump\t// in\n    tag_242:\n        /* \"#utility.yul\":7035:7154   */\n    tag_241:\n        /* \"#utility.yul\":7193:7194   */\n      0x00\n        /* \"#utility.yul\":7218:7279   */\n      tag_243\n        /* \"#utility.yul\":7271:7278   */\n      dup7\n        /* \"#utility.yul\":7262:7268   */\n      dup3\n        /* \"#utility.yul\":7251:7260   */\n      dup8\n        /* \"#utility.yul\":7247:7269   */\n      add\n        /* \"#utility.yul\":7218:7279   */\n      tag_122\n      jump\t// in\n    tag_243:\n        /* \"#utility.yul\":7208:7279   */\n      swap4\n      pop\n        /* \"#utility.yul\":7164:7289   */\n      pop\n        /* \"#utility.yul\":7328:7330   */\n      0x20\n        /* \"#utility.yul\":7354:7407   */\n      tag_244\n        /* \"#utility.yul\":7399:7406   */\n      dup7\n        /* \"#utility.yul\":7390:7396   */\n      dup3\n        /* \"#utility.yul\":7379:7388   */\n      dup8\n        /* \"#utility.yul\":7375:7397   */\n      add\n        /* \"#utility.yul\":7354:7407   */\n      tag_115\n      jump\t// in\n    tag_244:\n        /* \"#utility.yul\":7344:7407   */\n      swap3\n      pop\n        /* \"#utility.yul\":7299:7417   */\n      pop\n        /* \"#utility.yul\":7484:7486   */\n      0x40\n        /* \"#utility.yul\":7473:7482   */\n      dup5\n        /* \"#utility.yul\":7469:7487   */\n      add\n        /* \"#utility.yul\":7456:7488   */\n      calldataload\n        /* \"#utility.yul\":7515:7533   */\n      0xffffffffffffffff\n        /* \"#utility.yul\":7507:7513   */\n      dup2\n        /* \"#utility.yul\":7504:7534   */\n      gt\n        /* \"#utility.yul\":7501:7618   */\n      iszero\n      tag_245\n      jumpi\n        /* \"#utility.yul\":7537:7616   */\n      tag_246\n      tag_106\n      jump\t// in\n    tag_246:\n        /* \"#utility.yul\":7501:7618   */\n    tag_245:\n        /* \"#utility.yul\":7642:7704   */\n      tag_247\n        /* \"#utility.yul\":7696:7703   */\n      dup7\n        /* \"#utility.yul\":7687:7693   */\n      dup3\n        /* \"#utility.yul\":7676:7685   */\n      dup8\n        /* \"#utility.yul\":7672:7694   */\n      add\n        /* \"#utility.yul\":7642:7704   */\n      tag_132\n      jump\t// in\n    tag_247:\n        /* \"#utility.yul\":7632:7704   */\n      swap2\n      pop\n        /* \"#utility.yul\":7427:7714   */\n      pop\n        /* \"#utility.yul\":6908:7721   */\n      swap3\n      pop\n      swap3\n      pop\n      swap3\n      jump\t// out\n        /* \"#utility.yul\":7727:7825   */\n    tag_133:\n        /* \"#utility.yul\":7778:7784   */\n      0x00\n        /* \"#utility.yul\":7812:7817   */\n      dup2\n        /* \"#utility.yul\":7806:7818   */\n      mload\n        /* \"#utility.yul\":7796:7818   */\n      swap1\n      pop\n        /* \"#utility.yul\":7727:7825   */\n      swap2\n      swap1\n      pop\n      jump\t// out\n        /* \"#utility.yul\":7831:7999   */\n    tag_134:\n        /* \"#utility.yul\":7914:7925   */\n      0x00\n        /* \"#utility.yul\":7948:7954   */\n      dup3\n        /* \"#utility.yul\":7943:7946   */\n      dup3\n        /* \"#utility.yul\":7936:7955   */\n      mstore\n        /* \"#utility.yul\":7988:7992   */\n      0x20\n        /* \"#utility.yul\":7983:7986   */\n      dup3\n        /* \"#utility.yul\":7979:7993   */\n      add\n        /* \"#utility.yul\":7964:7993   */\n      swap1\n      pop\n        /* \"#utility.yul\":7831:7999   */\n      swap3\n      swap2\n      pop\n      pop\n      jump\t// out\n        /* \"#utility.yul\":8005:8312   */\n    tag_135:\n        /* \"#utility.yul\":8073:8074   */\n      0x00\n        /* \"#utility.yul\":8083:8196   */\n    tag_251:\n        /* \"#utility.yul\":8097:8103   */\n      dup4\n        /* \"#utility.yul\":8094:8095   */\n      dup2\n        /* \"#utility.yul\":8091:8104   */\n      lt\n        /* \"#utility.yul\":8083:8196   */\n      iszero\n      tag_253\n      jumpi\n        /* \"#utility.yul\":8182:8183   */\n      dup1\n        /* \"#utility.yul\":8177:8180   */\n      dup3\n        /* \"#utility.yul\":8173:8184   */\n      add\n        /* \"#utility.yul\":8167:8185   */\n      mload\n        /* \"#utility.yul\":8163:8164   */\n      dup2\n        /* \"#utility.yul\":8158:8161   */\n      dup5\n        /* \"#utility.yul\":8154:8165   */\n      add\n        /* \"#utility.yul\":8147:8186   */\n      mstore\n        /* \"#utility.yul\":8119:8121   */\n      0x20\n        /* \"#utility.yul\":8116:8117   */\n      dup2\n        /* \"#utility.yul\":8112:8122   */\n      add\n        /* \"#utility.yul\":8107:8122   */\n      swap1\n      pop\n        /* \"#utility.yul\":8083:8196   */\n      jump(tag_251)\n    tag_253:\n        /* \"#utility.yul\":8214:8220   */\n      dup4\n        /* \"#utility.yul\":8211:8212   */\n      dup2\n        /* \"#utility.yul\":8208:8221   */\n      gt\n        /* \"#utility.yul\":8205:8306   */\n      iszero\n      tag_254\n      jumpi\n        /* \"#utility.yul\":8294:8295   */\n      0x00\n        /* \"#utility.yul\":8285:8291   */\n      dup5\n        /* \"#utility.yul\":8280:8283   */\n      dup5\n        /* \"#utility.yul\":8276:8292   */\n      add\n        /* \"#utility.yul\":8269:8296   */\n      mstore\n        /* \"#utility.yul\":8205:8306   */\n    tag_254:\n        /* \"#utility.yul\":8054:8312   */\n      pop\n        /* \"#utility.yul\":8005:8312   */\n      pop\n      pop\n      pop\n      jump\t// out\n        /* \"#utility.yul\":8318:8678   */\n    tag_136:\n        /* \"#utility.yul\":8404:8407   */\n      0x00\n        /* \"#utility.yul\":8432:8470   */\n      tag_256\n        /* \"#utility.yul\":8464:8469   */\n      dup3\n        /* \"#utility.yul\":8432:8470   */\n      tag_133\n      jump\t// in\n    tag_256:\n        /* \"#utility.yul\":8486:8556   */\n      tag_257\n        /* \"#utility.yul\":8549:8555   */\n      dup2\n        /* \"#utility.yul\":8544:8547   */\n      dup6\n        /* \"#utility.yul\":8486:8556   */\n      tag_134\n      jump\t// in\n    tag_257:\n        /* \"#utility.yul\":8479:8556   */\n      swap4\n      pop\n        /* \"#utility.yul\":8565:8617   */\n      tag_258\n        /* \"#utility.yul\":8610:8616   */\n      dup2\n        /* \"#utility.yul\":8605:8608   */\n      dup6\n        /* \"#utility.yul\":8598:8602   */\n      0x20\n        /* \"#utility.yul\":8591:8596   */\n      dup7\n        /* \"#utility.yul\":8587:8603   */\n      add\n        /* \"#utility.yul\":8565:8617   */\n      tag_135\n      jump\t// in\n    tag_258:\n        /* \"#utility.yul\":8642:8671   */\n      tag_259\n        /* \"#utility.yul\":8664:8670   */\n      dup2\n        /* \"#utility.yul\":8642:8671   */\n      tag_125\n      jump\t// in\n    tag_259:\n        /* \"#utility.yul\":8637:8640   */\n      dup5\n        /* \"#utility.yul\":8633:8672   */\n      add\n        /* \"#utility.yul\":8626:8672   */\n      swap2\n      pop\n        /* \"#utility.yul\":8408:8678   */\n      pop\n        /* \"#utility.yul\":8318:8678   */\n      swap3\n      swap2\n      pop\n      pop\n      jump\t// out\n        /* \"#utility.yul\":8684:8993   */\n    tag_59:\n        /* \"#utility.yul\":8795:8799   */\n      0x00\n        /* \"#utility.yul\":8833:8835   */\n      0x20\n        /* \"#utility.yul\":8822:8831   */\n      dup3\n        /* \"#utility.yul\":8818:8836   */\n      add\n        /* \"#utility.yul\":8810:8836   */\n      swap1\n      pop\n        /* \"#utility.yul\":8882:8891   */\n      dup2\n        /* \"#utility.yul\":8876:8880   */\n      dup2\n        /* \"#utility.yul\":8872:8892   */\n      sub\n        /* \"#utility.yul\":8868:8869   */\n      0x00\n        /* \"#utility.yul\":8857:8866   */\n      dup4\n        /* \"#utility.yul\":8853:8870   */\n      add\n        /* \"#utility.yul\":8846:8893   */\n      mstore\n        /* \"#utility.yul\":8910:8986   */\n      tag_261\n        /* \"#utility.yul\":8981:8985   */\n      dup2\n        /* \"#utility.yul\":8972:8978   */\n      dup5\n        /* \"#utility.yul\":8910:8986   */\n      tag_136\n      jump\t// in\n    tag_261:\n        /* \"#utility.yul\":8902:8986   */\n      swap1\n      pop\n        /* \"#utility.yul\":8684:8993   */\n      swap3\n      swap2\n      pop\n      pop\n      jump\t// out\n        /* \"#utility.yul\":8999:9168   */\n    tag_137:\n        /* \"#utility.yul\":9083:9094   */\n      0x00\n        /* \"#utility.yul\":9117:9123   */\n      dup3\n        /* \"#utility.yul\":9112:9115   */\n      dup3\n        /* \"#utility.yul\":9105:9124   */\n      mstore\n        /* \"#utility.yul\":9157:9161   */\n      0x20\n        /* \"#utility.yul\":9152:9155   */\n      dup3\n        /* \"#utility.yul\":9148:9162   */\n      add\n        /* \"#utility.yul\":9133:9162   */\n      swap1\n      pop\n        /* \"#utility.yul\":8999:9168   */\n      swap3\n      swap2\n      pop\n      pop\n      jump\t// out\n        /* \"#utility.yul\":9174:9355   */\n    tag_138:\n        /* \"#utility.yul\":9314:9347   */\n      0x596f7520617265206e6f7420746865206f776e65722c2061626f7274696e6700\n        /* \"#utility.yul\":9310:9311   */\n      0x00\n        /* \"#utility.yul\":9302:9308   */\n      dup3\n        /* \"#utility.yul\":9298:9312   */\n      add\n        /* \"#utility.yul\":9291:9348   */\n      mstore\n        /* \"#utility.yul\":9174:9355   */\n      pop\n      jump\t// out\n        /* \"#utility.yul\":9361:9727   */\n    tag_139:\n        /* \"#utility.yul\":9503:9506   */\n      0x00\n        /* \"#utility.yul\":9524:9591   */\n      tag_265\n        /* \"#utility.yul\":9588:9590   */\n      0x1f\n        /* \"#utility.yul\":9583:9586   */\n      dup4\n        /* \"#utility.yul\":9524:9591   */\n      tag_137\n      jump\t// in\n    tag_265:\n        /* \"#utility.yul\":9517:9591   */\n      swap2\n      pop\n        /* \"#utility.yul\":9600:9693   */\n      tag_266\n        /* \"#utility.yul\":9689:9692   */\n      dup3\n        /* \"#utility.yul\":9600:9693   */\n      tag_138\n      jump\t// in\n    tag_266:\n        /* \"#utility.yul\":9718:9720   */\n      0x20\n        /* \"#utility.yul\":9713:9716   */\n      dup3\n        /* \"#utility.yul\":9709:9721   */\n      add\n        /* \"#utility.yul\":9702:9721   */\n      swap1\n      pop\n        /* \"#utility.yul\":9361:9727   */\n      swap2\n      swap1\n      pop\n      jump\t// out\n        /* \"#utility.yul\":9733:10152   */\n    tag_67:\n        /* \"#utility.yul\":9899:9903   */\n      0x00\n        /* \"#utility.yul\":9937:9939   */\n      0x20\n        /* \"#utility.yul\":9926:9935   */\n      dup3\n        /* \"#utility.yul\":9922:9940   */\n      add\n        /* \"#utility.yul\":9914:9940   */\n      swap1\n      pop\n        /* \"#utility.yul\":9986:9995   */\n      dup2\n        /* \"#utility.yul\":9980:9984   */\n      dup2\n        /* \"#utility.yul\":9976:9996   */\n      sub\n        /* \"#utility.yul\":9972:9973   */\n      0x00\n        /* \"#utility.yul\":9961:9970   */\n      dup4\n        /* \"#utility.yul\":9957:9974   */\n      add\n        /* \"#utility.yul\":9950:9997   */\n      mstore\n        /* \"#utility.yul\":10014:10145   */\n      tag_268\n        /* \"#utility.yul\":10140:10144   */\n      dup2\n        /* \"#utility.yul\":10014:10145   */\n      tag_139\n      jump\t// in\n    tag_268:\n        /* \"#utility.yul\":10006:10145   */\n      swap1\n      pop\n        /* \"#utility.yul\":9733:10152   */\n      swap2\n      swap1\n      pop\n      jump\t// out\n        /* \"#utility.yul\":10158:10390   */\n    tag_140:\n        /* \"#utility.yul\":10298:10332   */\n      0x596f7520617265206e6f7420677561726469616e206f6620746869732077616c\n        /* \"#utility.yul\":10294:10295   */\n      0x00\n        /* \"#utility.yul\":10286:10292   */\n      dup3\n        /* \"#utility.yul\":10282:10296   */\n      add\n        /* \"#utility.yul\":10275:10333   */\n      mstore\n        /* \"#utility.yul\":10367:10382   */\n      0x6c65742c2061626f7274696e6700000000000000000000000000000000000000\n        /* \"#utility.yul\":10362:10364   */\n      0x20\n        /* \"#utility.yul\":10354:10360   */\n      dup3\n        /* \"#utility.yul\":10350:10365   */\n      add\n        /* \"#utility.yul\":10343:10383   */\n      mstore\n        /* \"#utility.yul\":10158:10390   */\n      pop\n      jump\t// out\n        /* \"#utility.yul\":10396:10762   */\n    tag_141:\n        /* \"#utility.yul\":10538:10541   */\n      0x00\n        /* \"#utility.yul\":10559:10626   */\n      tag_271\n        /* \"#utility.yul\":10623:10625   */\n      0x2d\n        /* \"#utility.yul\":10618:10621   */\n      dup4\n        /* \"#utility.yul\":10559:10626   */\n      tag_137\n      jump\t// in\n    tag_271:\n        /* \"#utility.yul\":10552:10626   */\n      swap2\n      pop\n        /* \"#utility.yul\":10635:10728   */\n      tag_272\n        /* \"#utility.yul\":10724:10727   */\n      dup3\n        /* \"#utility.yul\":10635:10728   */\n      tag_140\n      jump\t// in\n    tag_272:\n        /* \"#utility.yul\":10753:10755   */\n      0x40\n        /* \"#utility.yul\":10748:10751   */\n      dup3\n        /* \"#utility.yul\":10744:10756   */\n      add\n        /* \"#utility.yul\":10737:10756   */\n      swap1\n      pop\n        /* \"#utility.yul\":10396:10762   */\n      swap2\n      swap1\n      pop\n      jump\t// out\n        /* \"#utility.yul\":10768:11187   */\n    tag_76:\n        /* \"#utility.yul\":10934:10938   */\n      0x00\n        /* \"#utility.yul\":10972:10974   */\n      0x20\n        /* \"#utility.yul\":10961:10970   */\n      dup3\n        /* \"#utility.yul\":10957:10975   */\n      add\n        /* \"#utility.yul\":10949:10975   */\n      swap1\n      pop\n        /* \"#utility.yul\":11021:11030   */\n      dup2\n        /* \"#utility.yul\":11015:11019   */\n      dup2\n        /* \"#utility.yul\":11011:11031   */\n      sub\n        /* \"#utility.yul\":11007:11008   */\n      0x00\n        /* \"#utility.yul\":10996:11005   */\n      dup4\n        /* \"#utility.yul\":10992:11009   */\n      add\n        /* \"#utility.yul\":10985:11032   */\n      mstore\n        /* \"#utility.yul\":11049:11180   */\n      tag_274\n        /* \"#utility.yul\":11175:11179   */\n      dup2\n        /* \"#utility.yul\":11049:11180   */\n      tag_141\n      jump\t// in\n    tag_274:\n        /* \"#utility.yul\":11041:11180   */\n      swap1\n      pop\n        /* \"#utility.yul\":10768:11187   */\n      swap2\n      swap1\n      pop\n      jump\t// out\n        /* \"#utility.yul\":11193:11374   */\n    tag_142:\n        /* \"#utility.yul\":11333:11366   */\n      0x596f752061726520616c726561647920766f7465642c2061626f7274696e6700\n        /* \"#utility.yul\":11329:11330   */\n      0x00\n        /* \"#utility.yul\":11321:11327   */\n      dup3\n        /* \"#utility.yul\":11317:11331   */\n      add\n        /* \"#utility.yul\":11310:11367   */\n      mstore\n        /* \"#utility.yul\":11193:11374   */\n      pop\n      jump\t// out\n        /* \"#utility.yul\":11380:11746   */\n    tag_143:\n        /* \"#utility.yul\":11522:11525   */\n      0x00\n        /* \"#utility.yul\":11543:11610   */\n      tag_277\n        /* \"#utility.yul\":11607:11609   */\n      0x1f\n        /* \"#utility.yul\":11602:11605   */\n      dup4\n        /* \"#utility.yul\":11543:11610   */\n      tag_137\n      jump\t// in\n    tag_277:\n        /* \"#utility.yul\":11536:11610   */\n      swap2\n      pop\n        /* \"#utility.yul\":11619:11712   */\n      tag_278\n        /* \"#utility.yul\":11708:11711   */\n      dup3\n        /* \"#utility.yul\":11619:11712   */\n      tag_142\n      jump\t// in\n    tag_278:\n        /* \"#utility.yul\":11737:11739   */\n      0x20\n        /* \"#utility.yul\":11732:11735   */\n      dup3\n        /* \"#utility.yul\":11728:11740   */\n      add\n        /* \"#utility.yul\":11721:11740   */\n      swap1\n      pop\n        /* \"#utility.yul\":11380:11746   */\n      swap2\n      swap1\n      pop\n      jump\t// out\n        /* \"#utility.yul\":11752:12171   */\n    tag_79:\n        /* \"#utility.yul\":11918:11922   */\n      0x00\n        /* \"#utility.yul\":11956:11958   */\n      0x20\n        /* \"#utility.yul\":11945:11954   */\n      dup3\n        /* \"#utility.yul\":11941:11959   */\n      add\n        /* \"#utility.yul\":11933:11959   */\n      swap1\n      pop\n        /* \"#utility.yul\":12005:12014   */\n      dup2\n        /* \"#utility.yul\":11999:12003   */\n      dup2\n        /* \"#utility.yul\":11995:12015   */\n      sub\n        /* \"#utility.yul\":11991:11992   */\n      0x00\n        /* \"#utility.yul\":11980:11989   */\n      dup4\n        /* \"#utility.yul\":11976:11993   */\n      add\n        /* \"#utility.yul\":11969:12016   */\n      mstore\n        /* \"#utility.yul\":12033:12164   */\n      tag_280\n        /* \"#utility.yul\":12159:12163   */\n      dup2\n        /* \"#utility.yul\":12033:12164   */\n      tag_143\n      jump\t// in\n    tag_280:\n        /* \"#utility.yul\":12025:12164   */\n      swap1\n      pop\n        /* \"#utility.yul\":11752:12171   */\n      swap2\n      swap1\n      pop\n      jump\t// out\n        /* \"#utility.yul\":12177:12357   */\n    tag_144:\n        /* \"#utility.yul\":12225:12302   */\n      0x4e487b7100000000000000000000000000000000000000000000000000000000\n        /* \"#utility.yul\":12222:12223   */\n      0x00\n        /* \"#utility.yul\":12215:12303   */\n      mstore\n        /* \"#utility.yul\":12322:12326   */\n      0x11\n        /* \"#utility.yul\":12319:12320   */\n      0x04\n        /* \"#utility.yul\":12312:12327   */\n      mstore\n        /* \"#utility.yul\":12346:12350   */\n      0x24\n        /* \"#utility.yul\":12343:12344   */\n      0x00\n        /* \"#utility.yul\":12336:12351   */\n      revert\n        /* \"#utility.yul\":12363:12596   */\n    tag_82:\n        /* \"#utility.yul\":12402:12405   */\n      0x00\n        /* \"#utility.yul\":12425:12449   */\n      tag_283\n        /* \"#utility.yul\":12443:12448   */\n      dup3\n        /* \"#utility.yul\":12425:12449   */\n      tag_113\n      jump\t// in\n    tag_283:\n        /* \"#utility.yul\":12416:12449   */\n      swap2\n      pop\n        /* \"#utility.yul\":12471:12537   */\n      0xffffffffffffffffffffffffffffffffffffffffffffffffffffffffffffffff\n        /* \"#utility.yul\":12464:12469   */\n      dup3\n        /* \"#utility.yul\":12461:12538   */\n      sub\n        /* \"#utility.yul\":12458:12561   */\n      tag_284\n      jumpi\n        /* \"#utility.yul\":12541:12559   */\n      tag_285\n      tag_144\n      jump\t// in\n    tag_285:\n        /* \"#utility.yul\":12458:12561   */\n    tag_284:\n        /* \"#utility.yul\":12588:12589   */\n      0x01\n        /* \"#utility.yul\":12581:12586   */\n      dup3\n        /* \"#utility.yul\":12577:12590   */\n      add\n        /* \"#utility.yul\":12570:12590   */\n      swap1\n      pop\n        /* \"#utility.yul\":12363:12596   */\n      swap2\n      swap1\n      pop\n      jump\t// out\n        /* \"#utility.yul\":12602:12846   */\n    tag_145:\n        /* \"#utility.yul\":12742:12776   */\n      0x596f752061726520616c6c6f77656420746f2073656e6420616e797468696e67\n        /* \"#utility.yul\":12738:12739   */\n      0x00\n        /* \"#utility.yul\":12730:12736   */\n      dup3\n        /* \"#utility.yul\":12726:12740   */\n      add\n        /* \"#utility.yul\":12719:12777   */\n      mstore\n        /* \"#utility.yul\":12811:12838   */\n      0x2066726f6d207468697320736d61727420636f6e747261637400000000000000\n        /* \"#utility.yul\":12806:12808   */\n      0x20\n        /* \"#utility.yul\":12798:12804   */\n      dup3\n        /* \"#utility.yul\":12794:12809   */\n      add\n        /* \"#utility.yul\":12787:12839   */\n      mstore\n        /* \"#utility.yul\":12602:12846   */\n      pop\n      jump\t// out\n        /* \"#utility.yul\":12852:13218   */\n    tag_146:\n        /* \"#utility.yul\":12994:12997   */\n      0x00\n        /* \"#utility.yul\":13015:13082   */\n      tag_288\n        /* \"#utility.yul\":13079:13081   */\n      0x39\n        /* \"#utility.yul\":13074:13077   */\n      dup4\n        /* \"#utility.yul\":13015:13082   */\n      tag_137\n      jump\t// in\n    tag_288:\n        /* \"#utility.yul\":13008:13082   */\n      swap2\n      pop\n        /* \"#utility.yul\":13091:13184   */\n      tag_289\n        /* \"#utility.yul\":13180:13183   */\n      dup3\n        /* \"#utility.yul\":13091:13184   */\n      tag_145\n      jump\t// in\n    tag_289:\n        /* \"#utility.yul\":13209:13211   */\n      0x40\n        /* \"#utility.yul\":13204:13207   */\n      dup3\n        /* \"#utility.yul\":13200:13212   */\n      add\n        /* \"#utility.yul\":13193:13212   */\n      swap1\n      pop\n        /* \"#utility.yul\":12852:13218   */\n      swap2\n      swap1\n      pop\n      jump\t// out\n        /* \"#utility.yul\":13224:13643   */\n    tag_90:\n        /* \"#utility.yul\":13390:13394   */\n      0x00\n        /* \"#utility.yul\":13428:13430   */\n      0x20\n        /* \"#utility.yul\":13417:13426   */\n      dup3\n        /* \"#utility.yul\":13413:13431   */\n      add\n        /* \"#utility.yul\":13405:13431   */\n      swap1\n      pop\n        /* \"#utility.yul\":13477:13486   */\n      dup2\n        /* \"#utility.yul\":13471:13475   */\n      dup2\n        /* \"#utility.yul\":13467:13487   */\n      sub\n        /* \"#utility.yul\":13463:13464   */\n      0x00\n        /* \"#utility.yul\":13452:13461   */\n      dup4\n        /* \"#utility.yul\":13448:13465   */\n      add\n        /* \"#utility.yul\":13441:13488   */\n      mstore\n        /* \"#utility.yul\":13505:13636   */\n      tag_291\n        /* \"#utility.yul\":13631:13635   */\n      dup2\n        /* \"#utility.yul\":13505:13636   */\n      tag_146\n      jump\t// in\n    tag_291:\n        /* \"#utility.yul\":13497:13636   */\n      swap1\n      pop\n        /* \"#utility.yul\":13224:13643   */\n      swap2\n      swap1\n      pop\n      jump\t// out\n        /* \"#utility.yul\":13649:13897   */\n    tag_147:\n        /* \"#utility.yul\":13789:13823   */\n      0x596f752061726520747279696e6720746f2073656e64206d6f7265207468616e\n        /* \"#utility.yul\":13785:13786   */\n      0x00\n        /* \"#utility.yul\":13777:13783   */\n      dup3\n        /* \"#utility.yul\":13773:13787   */\n      add\n        /* \"#utility.yul\":13766:13824   */\n      mstore\n        /* \"#utility.yul\":13858:13889   */\n      0x20796f752061726520616c6c6f77656420746f2c2061626f7274696e67000000\n        /* \"#utility.yul\":13853:13855   */\n      0x20\n        /* \"#utility.yul\":13845:13851   */\n      dup3\n        /* \"#utility.yul\":13841:13856   */\n      add\n        /* \"#utility.yul\":13834:13890   */\n      mstore\n        /* \"#utility.yul\":13649:13897   */\n      pop\n      jump\t// out\n        /* \"#utility.yul\":13903:14269   */\n    tag_148:\n        /* \"#utility.yul\":14045:14048   */\n      0x00\n        /* \"#utility.yul\":14066:14133   */\n      tag_294\n        /* \"#utility.yul\":14130:14132   */\n      0x3d\n        /* \"#utility.yul\":14125:14128   */\n      dup4\n        /* \"#utility.yul\":14066:14133   */\n      tag_137\n      jump\t// in\n    tag_294:\n        /* \"#utility.yul\":14059:14133   */\n      swap2\n      pop\n        /* \"#utility.yul\":14142:14235   */\n      tag_295\n        /* \"#utility.yul\":14231:14234   */\n      dup3\n        /* \"#utility.yul\":14142:14235   */\n      tag_147\n      jump\t// in\n    tag_295:\n        /* \"#utility.yul\":14260:14262   */\n      0x40\n        /* \"#utility.yul\":14255:14258   */\n      dup3\n        /* \"#utility.yul\":14251:14263   */\n      add\n        /* \"#utility.yul\":14244:14263   */\n      swap1\n      pop\n        /* \"#utility.yul\":13903:14269   */\n      swap2\n      swap1\n      pop\n      jump\t// out\n        /* \"#utility.yul\":14275:14694   */\n    tag_93:\n        /* \"#utility.yul\":14441:14445   */\n      0x00\n        /* \"#utility.yul\":14479:14481   */\n      0x20\n        /* \"#utility.yul\":14468:14477   */\n      dup3\n        /* \"#utility.yul\":14464:14482   */\n      add\n        /* \"#utility.yul\":14456:14482   */\n      swap1\n      pop\n        /* \"#utility.yul\":14528:14537   */\n      dup2\n        /* \"#utility.yul\":14522:14526   */\n      dup2\n        /* \"#utility.yul\":14518:14538   */\n      sub\n        /* \"#utility.yul\":14514:14515   */\n      0x00\n        /* \"#utility.yul\":14503:14512   */\n      dup4\n        /* \"#utility.yul\":14499:14516   */\n      add\n        /* \"#utility.yul\":14492:14539   */\n      mstore\n        /* \"#utility.yul\":14556:14687   */\n      tag_297\n        /* \"#utility.yul\":14682:14686   */\n      dup2\n        /* \"#utility.yul\":14556:14687   */\n      tag_148\n      jump\t// in\n    tag_297:\n        /* \"#utility.yul\":14548:14687   */\n      swap1\n      pop\n        /* \"#utility.yul\":14275:14694   */\n      swap2\n      swap1\n      pop\n      jump\t// out\n        /* \"#utility.yul\":14700:14891   */\n    tag_95:\n        /* \"#utility.yul\":14740:14744   */\n      0x00\n        /* \"#utility.yul\":14760:14780   */\n      tag_299\n        /* \"#utility.yul\":14778:14779   */\n      dup3\n        /* \"#utility.yul\":14760:14780   */\n      tag_113\n      jump\t// in\n    tag_299:\n        /* \"#utility.yul\":14755:14780   */\n      swap2\n      pop\n        /* \"#utility.yul\":14794:14814   */\n      tag_300\n        /* \"#utility.yul\":14812:14813   */\n      dup4\n        /* \"#utility.yul\":14794:14814   */\n      tag_113\n      jump\t// in\n    tag_300:\n        /* \"#utility.yul\":14789:14814   */\n      swap3\n      pop\n        /* \"#utility.yul\":14833:14834   */\n      dup3\n        /* \"#utility.yul\":14830:14831   */\n      dup3\n        /* \"#utility.yul\":14827:14835   */\n      lt\n        /* \"#utility.yul\":14824:14858   */\n      iszero\n      tag_301\n      jumpi\n        /* \"#utility.yul\":14838:14856   */\n      tag_302\n      tag_144\n      jump\t// in\n    tag_302:\n        /* \"#utility.yul\":14824:14858   */\n    tag_301:\n        /* \"#utility.yul\":14883:14884   */\n      dup3\n        /* \"#utility.yul\":14880:14881   */\n      dup3\n        /* \"#utility.yul\":14876:14885   */\n      sub\n        /* \"#utility.yul\":14868:14885   */\n      swap1\n      pop\n        /* \"#utility.yul\":14700:14891   */\n      swap3\n      swap2\n      pop\n      pop\n      jump\t// out\n        /* \"#utility.yul\":14897:15044   */\n    tag_149:\n        /* \"#utility.yul\":14998:15009   */\n      0x00\n        /* \"#utility.yul\":15035:15038   */\n      dup2\n        /* \"#utility.yul\":15020:15038   */\n      swap1\n      pop\n        /* \"#utility.yul\":14897:15044   */\n      swap3\n      swap2\n      pop\n      pop\n      jump\t// out\n        /* \"#utility.yul\":15050:15423   */\n    tag_150:\n        /* \"#utility.yul\":15154:15157   */\n      0x00\n        /* \"#utility.yul\":15182:15220   */\n      tag_305\n        /* \"#utility.yul\":15214:15219   */\n      dup3\n        /* \"#utility.yul\":15182:15220   */\n      tag_133\n      jump\t// in\n    tag_305:\n        /* \"#utility.yul\":15236:15324   */\n      tag_306\n        /* \"#utility.yul\":15317:15323   */\n      dup2\n        /* \"#utility.yul\":15312:15315   */\n      dup6\n        /* \"#utility.yul\":15236:15324   */\n      tag_149\n      jump\t// in\n    tag_306:\n        /* \"#utility.yul\":15229:15324   */\n      swap4\n      pop\n        /* \"#utility.yul\":15333:15385   */\n      tag_307\n        /* \"#utility.yul\":15378:15384   */\n      dup2\n        /* \"#utility.yul\":15373:15376   */\n      dup6\n        /* \"#utility.yul\":15366:15370   */\n      0x20\n        /* \"#utility.yul\":15359:15364   */\n      dup7\n        /* \"#utility.yul\":15355:15371   */\n      add\n        /* \"#utility.yul\":15333:15385   */\n      tag_135\n      jump\t// in\n    tag_307:\n        /* \"#utility.yul\":15410:15416   */\n      dup1\n        /* \"#utility.yul\":15405:15408   */\n      dup5\n        /* \"#utility.yul\":15401:15417   */\n      add\n        /* \"#utility.yul\":15394:15417   */\n      swap2\n      pop\n        /* \"#utility.yul\":15158:15423   */\n      pop\n        /* \"#utility.yul\":15050:15423   */\n      swap3\n      swap2\n      pop\n      pop\n      jump\t// out\n        /* \"#utility.yul\":15429:15700   */\n    tag_97:\n        /* \"#utility.yul\":15559:15562   */\n      0x00\n        /* \"#utility.yul\":15581:15674   */\n      tag_309\n        /* \"#utility.yul\":15670:15673   */\n      dup3\n        /* \"#utility.yul\":15661:15667   */\n      dup5\n        /* \"#utility.yul\":15581:15674   */\n      tag_150\n      jump\t// in\n    tag_309:\n        /* \"#utility.yul\":15574:15674   */\n      swap2\n      pop\n        /* \"#utility.yul\":15691:15694   */\n      dup2\n        /* \"#utility.yul\":15684:15694   */\n      swap1\n      pop\n        /* \"#utility.yul\":15429:15700   */\n      swap3\n      swap2\n      pop\n      pop\n      jump\t// out\n        /* \"#utility.yul\":15706:15926   */\n    tag_151:\n        /* \"#utility.yul\":15846:15880   */\n      0x41626f7274696e672c2063616c6c20776173206e6f7420737563636573736675\n        /* \"#utility.yul\":15842:15843   */\n      0x00\n        /* \"#utility.yul\":15834:15840   */\n      dup3\n        /* \"#utility.yul\":15830:15844   */\n      add\n        /* \"#utility.yul\":15823:15881   */\n      mstore\n        /* \"#utility.yul\":15915:15918   */\n      0x6c00000000000000000000000000000000000000000000000000000000000000\n        /* \"#utility.yul\":15910:15912   */\n      0x20\n        /* \"#utility.yul\":15902:15908   */\n      dup3\n        /* \"#utility.yul\":15898:15913   */\n      add\n        /* \"#utility.yul\":15891:15919   */\n      mstore\n        /* \"#utility.yul\":15706:15926   */\n      pop\n      jump\t// out\n        /* \"#utility.yul\":15932:16298   */\n    tag_152:\n        /* \"#utility.yul\":16074:16077   */\n      0x00\n        /* \"#utility.yul\":16095:16162   */\n      tag_312\n        /* \"#utility.yul\":16159:16161   */\n      0x21\n        /* \"#utility.yul\":16154:16157   */\n      dup4\n        /* \"#utility.yul\":16095:16162   */\n      tag_137\n      jump\t// in\n    tag_312:\n        /* \"#utility.yul\":16088:16162   */\n      swap2\n      pop\n        /* \"#utility.yul\":16171:16264   */\n      tag_313\n        /* \"#utility.yul\":16260:16263   */\n      dup3\n        /* \"#utility.yul\":16171:16264   */\n      tag_151\n      jump\t// in\n    tag_313:\n        /* \"#utility.yul\":16289:16291   */\n      0x40\n        /* \"#utility.yul\":16284:16287   */\n      dup3\n        /* \"#utility.yul\":16280:16292   */\n      add\n        /* \"#utility.yul\":16273:16292   */\n      swap1\n      pop\n        /* \"#utility.yul\":15932:16298   */\n      swap2\n      swap1\n      pop\n      jump\t// out\n        /* \"#utility.yul\":16304:16723   */\n    tag_103:\n        /* \"#utility.yul\":16470:16474   */\n      0x00\n        /* \"#utility.yul\":16508:16510   */\n      0x20\n        /* \"#utility.yul\":16497:16506   */\n      dup3\n        /* \"#utility.yul\":16493:16511   */\n      add\n        /* \"#utility.yul\":16485:16511   */\n      swap1\n      pop\n        /* \"#utility.yul\":16557:16566   */\n      dup2\n        /* \"#utility.yul\":16551:16555   */\n      dup2\n        /* \"#utility.yul\":16547:16567   */\n      sub\n        /* \"#utility.yul\":16543:16544   */\n      0x00\n        /* \"#utility.yul\":16532:16541   */\n      dup4\n        /* \"#utility.yul\":16528:16545   */\n      add\n        /* \"#utility.yul\":16521:16568   */\n      mstore\n        /* \"#utility.yul\":16585:16716   */\n      tag_315\n        /* \"#utility.yul\":16711:16715   */\n      dup2\n        /* \"#utility.yul\":16585:16716   */\n      tag_152\n      jump\t// in\n    tag_315:\n        /* \"#utility.yul\":16577:16716   */\n      swap1\n      pop\n        /* \"#utility.yul\":16304:16723   */\n      swap2\n      swap1\n      pop\n      jump\t// out\n\n    auxdata: 0xa26469706673582212208731926a6c41b179eebe5356b1c4ef9da0d13cb46f10255a1b6de0a55f5be1a364736f6c634300080f0033\n}\n",
				"bytecode": {
					"linkReferences": {},
					"object": "608060405234801561001057600080fd5b50336000806101000a81548173ffffffffffffffffffffffffffffffffffffffff021916908373ffffffffffffffffffffffffffffffffffffffff16021790555061145d806100606000396000f3fe60806040526004361061008a5760003560e01c8063a364c09f11610059578063a364c09f14610164578063aef462441461018d578063b1f8100d146101ca578063be45fd62146101f3578063caf5b4111461023057610091565b80630633b14a146100965780630bc605ad146100d3578063310ec4a7146101105780638da5cb5b1461013957610091565b3661009157005b600080fd5b3480156100a257600080fd5b506100bd60048036038101906100b89190610b95565b61025b565b6040516100ca9190610bdd565b60405180910390f35b3480156100df57600080fd5b506100fa60048036038101906100f59190610b95565b61027b565b6040516101079190610bdd565b60405180910390f35b34801561011c57600080fd5b5061013760048036038101906101329190610c2e565b61029b565b005b34801561014557600080fd5b5061014e610430565b60405161015b9190610c8f565b60405180910390f35b34801561017057600080fd5b5061018b60048036038101906101869190610cd6565b610454565b005b34801561019957600080fd5b506101b460048036038101906101af9190610b95565b61053d565b6040516101c19190610d25565b60405180910390f35b3480156101d657600080fd5b506101f160048036038101906101ec9190610d6c565b610555565b005b3480156101ff57600080fd5b5061021a60048036038101906102159190610edf565b61081a565b6040516102279190610fd6565b60405180910390f35b34801561023c57600080fd5b50610245610b1e565b6040516102529190610d25565b60405180910390f35b60036020528060005260406000206000915054906101000a900460ff1681565b60026020528060005260406000206000915054906101000a900460ff1681565b60008054906101000a900473ffffffffffffffffffffffffffffffffffffffff1673ffffffffffffffffffffffffffffffffffffffff163373ffffffffffffffffffffffffffffffffffffffff1614610329576040517f08c379a000000000000000000000000000000000000000000000000000000000815260040161032090611055565b60405180910390fd5b80600160008473ffffffffffffffffffffffffffffffffffffffff1673ffffffffffffffffffffffffffffffffffffffff1681526020019081526020016000208190555060008111156103d3576001600260008473ffffffffffffffffffffffffffffffffffffffff1673ffffffffffffffffffffffffffffffffffffffff16815260200190815260200160002060006101000a81548160ff02191690831515021790555061042c565b6000600260008473ffffffffffffffffffffffffffffffffffffffff1673ffffffffffffffffffffffffffffffffffffffff16815260200190815260200160002060006101000a81548160ff0219169083151502179055505b5050565b60008054906101000a900473ffffffffffffffffffffffffffffffffffffffff1681565b60008054906101000a900473ffffffffffffffffffffffffffffffffffffffff1673ffffffffffffffffffffffffffffffffffffffff163373ffffffffffffffffffffffffffffffffffffffff16146104e2576040517f08c379a00000000000000000000000000000000000000000000000000000000081526004016104d990611055565b60405180910390fd5b80600360008473ffffffffffffffffffffffffffffffffffffffff1673ffffffffffffffffffffffffffffffffffffffff16815260200190815260200160002060006101000a81548160ff0219169083151502179055505050565b60016020528060005260406000206000915090505481565b600360003373ffffffffffffffffffffffffffffffffffffffff1673ffffffffffffffffffffffffffffffffffffffff16815260200190815260200160002060009054906101000a900460ff166105e1576040517f08c379a00000000000000000000000000000000000000000000000000000000081526004016105d8906110e7565b60405180910390fd5b60001515600560008373ffffffffffffffffffffffffffffffffffffffff1673ffffffffffffffffffffffffffffffffffffffff16815260200190815260200160002060003373ffffffffffffffffffffffffffffffffffffffff1673ffffffffffffffffffffffffffffffffffffffff16815260200190815260200160002060009054906101000a900460ff161515146106b1576040517f08c379a00000000000000000000000000000000000000000000000000000000081526004016106a890611153565b60405180910390fd5b600460009054906101000a900473ffffffffffffffffffffffffffffffffffffffff1673ffffffffffffffffffffffffffffffffffffffff168173ffffffffffffffffffffffffffffffffffffffff16146107505780600460006101000a81548173ffffffffffffffffffffffffffffffffffffffff021916908373ffffffffffffffffffffffffffffffffffffffff16021790555060006006819055505b60066000815480929190610763906111a2565b919050555060036006541061081757600460009054906101000a900473ffffffffffffffffffffffffffffffffffffffff166000806101000a81548173ffffffffffffffffffffffffffffffffffffffff021916908373ffffffffffffffffffffffffffffffffffffffff1602179055506000600460006101000a81548173ffffffffffffffffffffffffffffffffffffffff021916908373ffffffffffffffffffffffffffffffffffffffff1602179055505b50565b606060008054906101000a900473ffffffffffffffffffffffffffffffffffffffff1673ffffffffffffffffffffffffffffffffffffffff163373ffffffffffffffffffffffffffffffffffffffff16146108aa576040517f08c379a00000000000000000000000000000000000000000000000000000000081526004016108a190611055565b60405180910390fd5b60008054906101000a900473ffffffffffffffffffffffffffffffffffffffff1673ffffffffffffffffffffffffffffffffffffffff163373ffffffffffffffffffffffffffffffffffffffff1614610a6257600260003373ffffffffffffffffffffffffffffffffffffffff1673ffffffffffffffffffffffffffffffffffffffff16815260200190815260200160002060009054906101000a900460ff16610989576040517f08c379a00000000000000000000000000000000000000000000000000000000081526004016109809061125c565b60405180910390fd5b82600160003373ffffffffffffffffffffffffffffffffffffffff1673ffffffffffffffffffffffffffffffffffffffff168152602001908152602001600020541015610a0b576040517f08c379a0000000000000000000000000000000000000000000000000000000008152600401610a02906112ee565b60405180910390fd5b82600160003373ffffffffffffffffffffffffffffffffffffffff1673ffffffffffffffffffffffffffffffffffffffff1681526020019081526020016000206000828254610a5a919061130e565b925050819055505b6000808573ffffffffffffffffffffffffffffffffffffffff168585604051610a8b919061137e565b60006040518083038185875af1925050503d8060008114610ac8576040519150601f19603f3d011682016040523d82523d6000602084013e610acd565b606091505b509150915081610b12576040517f08c379a0000000000000000000000000000000000000000000000000000000008152600401610b0990611407565b60405180910390fd5b80925050509392505050565b600381565b6000604051905090565b600080fd5b600080fd5b600073ffffffffffffffffffffffffffffffffffffffff82169050919050565b6000610b6282610b37565b9050919050565b610b7281610b57565b8114610b7d57600080fd5b50565b600081359050610b8f81610b69565b92915050565b600060208284031215610bab57610baa610b2d565b5b6000610bb984828501610b80565b91505092915050565b60008115159050919050565b610bd781610bc2565b82525050565b6000602082019050610bf26000830184610bce565b92915050565b6000819050919050565b610c0b81610bf8565b8114610c1657600080fd5b50565b600081359050610c2881610c02565b92915050565b60008060408385031215610c4557610c44610b2d565b5b6000610c5385828601610b80565b9250506020610c6485828601610c19565b9150509250929050565b6000610c7982610b37565b9050919050565b610c8981610c6e565b82525050565b6000602082019050610ca46000830184610c80565b92915050565b610cb381610bc2565b8114610cbe57600080fd5b50565b600081359050610cd081610caa565b92915050565b60008060408385031215610ced57610cec610b2d565b5b6000610cfb85828601610b80565b9250506020610d0c85828601610cc1565b9150509250929050565b610d1f81610bf8565b82525050565b6000602082019050610d3a6000830184610d16565b92915050565b610d4981610c6e565b8114610d5457600080fd5b50565b600081359050610d6681610d40565b92915050565b600060208284031215610d8257610d81610b2d565b5b6000610d9084828501610d57565b91505092915050565b600080fd5b600080fd5b6000601f19601f8301169050919050565b7f4e487b7100000000000000000000000000000000000000000000000000000000600052604160045260246000fd5b610dec82610da3565b810181811067ffffffffffffffff82111715610e0b57610e0a610db4565b5b80604052505050565b6000610e1e610b23565b9050610e2a8282610de3565b919050565b600067ffffffffffffffff821115610e4a57610e49610db4565b5b610e5382610da3565b9050602081019050919050565b82818337600083830152505050565b6000610e82610e7d84610e2f565b610e14565b905082815260208101848484011115610e9e57610e9d610d9e565b5b610ea9848285610e60565b509392505050565b600082601f830112610ec657610ec5610d99565b5b8135610ed6848260208601610e6f565b91505092915050565b600080600060608486031215610ef857610ef7610b2d565b5b6000610f0686828701610d57565b9350506020610f1786828701610c19565b925050604084013567ffffffffffffffff811115610f3857610f37610b32565b5b610f4486828701610eb1565b9150509250925092565b600081519050919050565b600082825260208201905092915050565b60005b83811015610f88578082015181840152602081019050610f6d565b83811115610f97576000848401525b50505050565b6000610fa882610f4e565b610fb28185610f59565b9350610fc2818560208601610f6a565b610fcb81610da3565b840191505092915050565b60006020820190508181036000830152610ff08184610f9d565b905092915050565b600082825260208201905092915050565b7f596f7520617265206e6f7420746865206f776e65722c2061626f7274696e6700600082015250565b600061103f601f83610ff8565b915061104a82611009565b602082019050919050565b6000602082019050818103600083015261106e81611032565b9050919050565b7f596f7520617265206e6f7420677561726469616e206f6620746869732077616c60008201527f6c65742c2061626f7274696e6700000000000000000000000000000000000000602082015250565b60006110d1602d83610ff8565b91506110dc82611075565b604082019050919050565b60006020820190508181036000830152611100816110c4565b9050919050565b7f596f752061726520616c726561647920766f7465642c2061626f7274696e6700600082015250565b600061113d601f83610ff8565b915061114882611107565b602082019050919050565b6000602082019050818103600083015261116c81611130565b9050919050565b7f4e487b7100000000000000000000000000000000000000000000000000000000600052601160045260246000fd5b60006111ad82610bf8565b91507fffffffffffffffffffffffffffffffffffffffffffffffffffffffffffffffff82036111df576111de611173565b5b600182019050919050565b7f596f752061726520616c6c6f77656420746f2073656e6420616e797468696e6760008201527f2066726f6d207468697320736d61727420636f6e747261637400000000000000602082015250565b6000611246603983610ff8565b9150611251826111ea565b604082019050919050565b6000602082019050818103600083015261127581611239565b9050919050565b7f596f752061726520747279696e6720746f2073656e64206d6f7265207468616e60008201527f20796f752061726520616c6c6f77656420746f2c2061626f7274696e67000000602082015250565b60006112d8603d83610ff8565b91506112e38261127c565b604082019050919050565b60006020820190508181036000830152611307816112cb565b9050919050565b600061131982610bf8565b915061132483610bf8565b92508282101561133757611336611173565b5b828203905092915050565b600081905092915050565b600061135882610f4e565b6113628185611342565b9350611372818560208601610f6a565b80840191505092915050565b600061138a828461134d565b915081905092915050565b7f41626f7274696e672c2063616c6c20776173206e6f742073756363657373667560008201527f6c00000000000000000000000000000000000000000000000000000000000000602082015250565b60006113f1602183610ff8565b91506113fc82611395565b604082019050919050565b60006020820190508181036000830152611420816113e4565b905091905056fea26469706673582212208731926a6c41b179eebe5356b1c4ef9da0d13cb46f10255a1b6de0a55f5be1a364736f6c634300080f0033",
					"opcodes": "PUSH1 0x80 PUSH1 0x40 MSTORE CALLVALUE DUP1 ISZERO PUSH2 0x10 JUMPI PUSH1 0x0 DUP1 REVERT JUMPDEST POP CALLER PUSH1 0x0 DUP1 PUSH2 0x100 EXP DUP2 SLOAD DUP2 PUSH20 0xFFFFFFFFFFFFFFFFFFFFFFFFFFFFFFFFFFFFFFFF MUL NOT AND SWAP1 DUP4 PUSH20 0xFFFFFFFFFFFFFFFFFFFFFFFFFFFFFFFFFFFFFFFF AND MUL OR SWAP1 SSTORE POP PUSH2 0x145D DUP1 PUSH2 0x60 PUSH1 0x0 CODECOPY PUSH1 0x0 RETURN INVALID PUSH1 0x80 PUSH1 0x40 MSTORE PUSH1 0x4 CALLDATASIZE LT PUSH2 0x8A JUMPI PUSH1 0x0 CALLDATALOAD PUSH1 0xE0 SHR DUP1 PUSH4 0xA364C09F GT PUSH2 0x59 JUMPI DUP1 PUSH4 0xA364C09F EQ PUSH2 0x164 JUMPI DUP1 PUSH4 0xAEF46244 EQ PUSH2 0x18D JUMPI DUP1 PUSH4 0xB1F8100D EQ PUSH2 0x1CA JUMPI DUP1 PUSH4 0xBE45FD62 EQ PUSH2 0x1F3 JUMPI DUP1 PUSH4 0xCAF5B411 EQ PUSH2 0x230 JUMPI PUSH2 0x91 JUMP JUMPDEST DUP1 PUSH4 0x633B14A EQ PUSH2 0x96 JUMPI DUP1 PUSH4 0xBC605AD EQ PUSH2 0xD3 JUMPI DUP1 PUSH4 0x310EC4A7 EQ PUSH2 0x110 JUMPI DUP1 PUSH4 0x8DA5CB5B EQ PUSH2 0x139 JUMPI PUSH2 0x91 JUMP JUMPDEST CALLDATASIZE PUSH2 0x91 JUMPI STOP JUMPDEST PUSH1 0x0 DUP1 REVERT JUMPDEST CALLVALUE DUP1 ISZERO PUSH2 0xA2 JUMPI PUSH1 0x0 DUP1 REVERT JUMPDEST POP PUSH2 0xBD PUSH1 0x4 DUP1 CALLDATASIZE SUB DUP2 ADD SWAP1 PUSH2 0xB8 SWAP2 SWAP1 PUSH2 0xB95 JUMP JUMPDEST PUSH2 0x25B JUMP JUMPDEST PUSH1 0x40 MLOAD PUSH2 0xCA SWAP2 SWAP1 PUSH2 0xBDD JUMP JUMPDEST PUSH1 0x40 MLOAD DUP1 SWAP2 SUB SWAP1 RETURN JUMPDEST CALLVALUE DUP1 ISZERO PUSH2 0xDF JUMPI PUSH1 0x0 DUP1 REVERT JUMPDEST POP PUSH2 0xFA PUSH1 0x4 DUP1 CALLDATASIZE SUB DUP2 ADD SWAP1 PUSH2 0xF5 SWAP2 SWAP1 PUSH2 0xB95 JUMP JUMPDEST PUSH2 0x27B JUMP JUMPDEST PUSH1 0x40 MLOAD PUSH2 0x107 SWAP2 SWAP1 PUSH2 0xBDD JUMP JUMPDEST PUSH1 0x40 MLOAD DUP1 SWAP2 SUB SWAP1 RETURN JUMPDEST CALLVALUE DUP1 ISZERO PUSH2 0x11C JUMPI PUSH1 0x0 DUP1 REVERT JUMPDEST POP PUSH2 0x137 PUSH1 0x4 DUP1 CALLDATASIZE SUB DUP2 ADD SWAP1 PUSH2 0x132 SWAP2 SWAP1 PUSH2 0xC2E JUMP JUMPDEST PUSH2 0x29B JUMP JUMPDEST STOP JUMPDEST CALLVALUE DUP1 ISZERO PUSH2 0x145 JUMPI PUSH1 0x0 DUP1 REVERT JUMPDEST POP PUSH2 0x14E PUSH2 0x430 JUMP JUMPDEST PUSH1 0x40 MLOAD PUSH2 0x15B SWAP2 SWAP1 PUSH2 0xC8F JUMP JUMPDEST PUSH1 0x40 MLOAD DUP1 SWAP2 SUB SWAP1 RETURN JUMPDEST CALLVALUE DUP1 ISZERO PUSH2 0x170 JUMPI PUSH1 0x0 DUP1 REVERT JUMPDEST POP PUSH2 0x18B PUSH1 0x4 DUP1 CALLDATASIZE SUB DUP2 ADD SWAP1 PUSH2 0x186 SWAP2 SWAP1 PUSH2 0xCD6 JUMP JUMPDEST PUSH2 0x454 JUMP JUMPDEST STOP JUMPDEST CALLVALUE DUP1 ISZERO PUSH2 0x199 JUMPI PUSH1 0x0 DUP1 REVERT JUMPDEST POP PUSH2 0x1B4 PUSH1 0x4 DUP1 CALLDATASIZE SUB DUP2 ADD SWAP1 PUSH2 0x1AF SWAP2 SWAP1 PUSH2 0xB95 JUMP JUMPDEST PUSH2 0x53D JUMP JUMPDEST PUSH1 0x40 MLOAD PUSH2 0x1C1 SWAP2 SWAP1 PUSH2 0xD25 JUMP JUMPDEST PUSH1 0x40 MLOAD DUP1 SWAP2 SUB SWAP1 RETURN JUMPDEST CALLVALUE DUP1 ISZERO PUSH2 0x1D6 JUMPI PUSH1 0x0 DUP1 REVERT JUMPDEST POP PUSH2 0x1F1 PUSH1 0x4 DUP1 CALLDATASIZE SUB DUP2 ADD SWAP1 PUSH2 0x1EC SWAP2 SWAP1 PUSH2 0xD6C JUMP JUMPDEST PUSH2 0x555 JUMP JUMPDEST STOP JUMPDEST CALLVALUE DUP1 ISZERO PUSH2 0x1FF JUMPI PUSH1 0x0 DUP1 REVERT JUMPDEST POP PUSH2 0x21A PUSH1 0x4 DUP1 CALLDATASIZE SUB DUP2 ADD SWAP1 PUSH2 0x215 SWAP2 SWAP1 PUSH2 0xEDF JUMP JUMPDEST PUSH2 0x81A JUMP JUMPDEST PUSH1 0x40 MLOAD PUSH2 0x227 SWAP2 SWAP1 PUSH2 0xFD6 JUMP JUMPDEST PUSH1 0x40 MLOAD DUP1 SWAP2 SUB SWAP1 RETURN JUMPDEST CALLVALUE DUP1 ISZERO PUSH2 0x23C JUMPI PUSH1 0x0 DUP1 REVERT JUMPDEST POP PUSH2 0x245 PUSH2 0xB1E JUMP JUMPDEST PUSH1 0x40 MLOAD PUSH2 0x252 SWAP2 SWAP1 PUSH2 0xD25 JUMP JUMPDEST PUSH1 0x40 MLOAD DUP1 SWAP2 SUB SWAP1 RETURN JUMPDEST PUSH1 0x3 PUSH1 0x20 MSTORE DUP1 PUSH1 0x0 MSTORE PUSH1 0x40 PUSH1 0x0 KECCAK256 PUSH1 0x0 SWAP2 POP SLOAD SWAP1 PUSH2 0x100 EXP SWAP1 DIV PUSH1 0xFF AND DUP2 JUMP JUMPDEST PUSH1 0x2 PUSH1 0x20 MSTORE DUP1 PUSH1 0x0 MSTORE PUSH1 0x40 PUSH1 0x0 KECCAK256 PUSH1 0x0 SWAP2 POP SLOAD SWAP1 PUSH2 0x100 EXP SWAP1 DIV PUSH1 0xFF AND DUP2 JUMP JUMPDEST PUSH1 0x0 DUP1 SLOAD SWAP1 PUSH2 0x100 EXP SWAP1 DIV PUSH20 0xFFFFFFFFFFFFFFFFFFFFFFFFFFFFFFFFFFFFFFFF AND PUSH20 0xFFFFFFFFFFFFFFFFFFFFFFFFFFFFFFFFFFFFFFFF AND CALLER PUSH20 0xFFFFFFFFFFFFFFFFFFFFFFFFFFFFFFFFFFFFFFFF AND EQ PUSH2 0x329 JUMPI PUSH1 0x40 MLOAD PUSH32 0x8C379A000000000000000000000000000000000000000000000000000000000 DUP2 MSTORE PUSH1 0x4 ADD PUSH2 0x320 SWAP1 PUSH2 0x1055 JUMP JUMPDEST PUSH1 0x40 MLOAD DUP1 SWAP2 SUB SWAP1 REVERT JUMPDEST DUP1 PUSH1 0x1 PUSH1 0x0 DUP5 PUSH20 0xFFFFFFFFFFFFFFFFFFFFFFFFFFFFFFFFFFFFFFFF AND PUSH20 0xFFFFFFFFFFFFFFFFFFFFFFFFFFFFFFFFFFFFFFFF AND DUP2 MSTORE PUSH1 0x20 ADD SWAP1 DUP2 MSTORE PUSH1 0x20 ADD PUSH1 0x0 KECCAK256 DUP2 SWAP1 SSTORE POP PUSH1 0x0 DUP2 GT ISZERO PUSH2 0x3D3 JUMPI PUSH1 0x1 PUSH1 0x2 PUSH1 0x0 DUP5 PUSH20 0xFFFFFFFFFFFFFFFFFFFFFFFFFFFFFFFFFFFFFFFF AND PUSH20 0xFFFFFFFFFFFFFFFFFFFFFFFFFFFFFFFFFFFFFFFF AND DUP2 MSTORE PUSH1 0x20 ADD SWAP1 DUP2 MSTORE PUSH1 0x20 ADD PUSH1 0x0 KECCAK256 PUSH1 0x0 PUSH2 0x100 EXP DUP2 SLOAD DUP2 PUSH1 0xFF MUL NOT AND SWAP1 DUP4 ISZERO ISZERO MUL OR SWAP1 SSTORE POP PUSH2 0x42C JUMP JUMPDEST PUSH1 0x0 PUSH1 0x2 PUSH1 0x0 DUP5 PUSH20 0xFFFFFFFFFFFFFFFFFFFFFFFFFFFFFFFFFFFFFFFF AND PUSH20 0xFFFFFFFFFFFFFFFFFFFFFFFFFFFFFFFFFFFFFFFF AND DUP2 MSTORE PUSH1 0x20 ADD SWAP1 DUP2 MSTORE PUSH1 0x20 ADD PUSH1 0x0 KECCAK256 PUSH1 0x0 PUSH2 0x100 EXP DUP2 SLOAD DUP2 PUSH1 0xFF MUL NOT AND SWAP1 DUP4 ISZERO ISZERO MUL OR SWAP1 SSTORE POP JUMPDEST POP POP JUMP JUMPDEST PUSH1 0x0 DUP1 SLOAD SWAP1 PUSH2 0x100 EXP SWAP1 DIV PUSH20 0xFFFFFFFFFFFFFFFFFFFFFFFFFFFFFFFFFFFFFFFF AND DUP2 JUMP JUMPDEST PUSH1 0x0 DUP1 SLOAD SWAP1 PUSH2 0x100 EXP SWAP1 DIV PUSH20 0xFFFFFFFFFFFFFFFFFFFFFFFFFFFFFFFFFFFFFFFF AND PUSH20 0xFFFFFFFFFFFFFFFFFFFFFFFFFFFFFFFFFFFFFFFF AND CALLER PUSH20 0xFFFFFFFFFFFFFFFFFFFFFFFFFFFFFFFFFFFFFFFF AND EQ PUSH2 0x4E2 JUMPI PUSH1 0x40 MLOAD PUSH32 0x8C379A000000000000000000000000000000000000000000000000000000000 DUP2 MSTORE PUSH1 0x4 ADD PUSH2 0x4D9 SWAP1 PUSH2 0x1055 JUMP JUMPDEST PUSH1 0x40 MLOAD DUP1 SWAP2 SUB SWAP1 REVERT JUMPDEST DUP1 PUSH1 0x3 PUSH1 0x0 DUP5 PUSH20 0xFFFFFFFFFFFFFFFFFFFFFFFFFFFFFFFFFFFFFFFF AND PUSH20 0xFFFFFFFFFFFFFFFFFFFFFFFFFFFFFFFFFFFFFFFF AND DUP2 MSTORE PUSH1 0x20 ADD SWAP1 DUP2 MSTORE PUSH1 0x20 ADD PUSH1 0x0 KECCAK256 PUSH1 0x0 PUSH2 0x100 EXP DUP2 SLOAD DUP2 PUSH1 0xFF MUL NOT AND SWAP1 DUP4 ISZERO ISZERO MUL OR SWAP1 SSTORE POP POP POP JUMP JUMPDEST PUSH1 0x1 PUSH1 0x20 MSTORE DUP1 PUSH1 0x0 MSTORE PUSH1 0x40 PUSH1 0x0 KECCAK256 PUSH1 0x0 SWAP2 POP SWAP1 POP SLOAD DUP2 JUMP JUMPDEST PUSH1 0x3 PUSH1 0x0 CALLER PUSH20 0xFFFFFFFFFFFFFFFFFFFFFFFFFFFFFFFFFFFFFFFF AND PUSH20 0xFFFFFFFFFFFFFFFFFFFFFFFFFFFFFFFFFFFFFFFF AND DUP2 MSTORE PUSH1 0x20 ADD SWAP1 DUP2 MSTORE PUSH1 0x20 ADD PUSH1 0x0 KECCAK256 PUSH1 0x0 SWAP1 SLOAD SWAP1 PUSH2 0x100 EXP SWAP1 DIV PUSH1 0xFF AND PUSH2 0x5E1 JUMPI PUSH1 0x40 MLOAD PUSH32 0x8C379A000000000000000000000000000000000000000000000000000000000 DUP2 MSTORE PUSH1 0x4 ADD PUSH2 0x5D8 SWAP1 PUSH2 0x10E7 JUMP JUMPDEST PUSH1 0x40 MLOAD DUP1 SWAP2 SUB SWAP1 REVERT JUMPDEST PUSH1 0x0 ISZERO ISZERO PUSH1 0x5 PUSH1 0x0 DUP4 PUSH20 0xFFFFFFFFFFFFFFFFFFFFFFFFFFFFFFFFFFFFFFFF AND PUSH20 0xFFFFFFFFFFFFFFFFFFFFFFFFFFFFFFFFFFFFFFFF AND DUP2 MSTORE PUSH1 0x20 ADD SWAP1 DUP2 MSTORE PUSH1 0x20 ADD PUSH1 0x0 KECCAK256 PUSH1 0x0 CALLER PUSH20 0xFFFFFFFFFFFFFFFFFFFFFFFFFFFFFFFFFFFFFFFF AND PUSH20 0xFFFFFFFFFFFFFFFFFFFFFFFFFFFFFFFFFFFFFFFF AND DUP2 MSTORE PUSH1 0x20 ADD SWAP1 DUP2 MSTORE PUSH1 0x20 ADD PUSH1 0x0 KECCAK256 PUSH1 0x0 SWAP1 SLOAD SWAP1 PUSH2 0x100 EXP SWAP1 DIV PUSH1 0xFF AND ISZERO ISZERO EQ PUSH2 0x6B1 JUMPI PUSH1 0x40 MLOAD PUSH32 0x8C379A000000000000000000000000000000000000000000000000000000000 DUP2 MSTORE PUSH1 0x4 ADD PUSH2 0x6A8 SWAP1 PUSH2 0x1153 JUMP JUMPDEST PUSH1 0x40 MLOAD DUP1 SWAP2 SUB SWAP1 REVERT JUMPDEST PUSH1 0x4 PUSH1 0x0 SWAP1 SLOAD SWAP1 PUSH2 0x100 EXP SWAP1 DIV PUSH20 0xFFFFFFFFFFFFFFFFFFFFFFFFFFFFFFFFFFFFFFFF AND PUSH20 0xFFFFFFFFFFFFFFFFFFFFFFFFFFFFFFFFFFFFFFFF AND DUP2 PUSH20 0xFFFFFFFFFFFFFFFFFFFFFFFFFFFFFFFFFFFFFFFF AND EQ PUSH2 0x750 JUMPI DUP1 PUSH1 0x4 PUSH1 0x0 PUSH2 0x100 EXP DUP2 SLOAD DUP2 PUSH20 0xFFFFFFFFFFFFFFFFFFFFFFFFFFFFFFFFFFFFFFFF MUL NOT AND SWAP1 DUP4 PUSH20 0xFFFFFFFFFFFFFFFFFFFFFFFFFFFFFFFFFFFFFFFF AND MUL OR SWAP1 SSTORE POP PUSH1 0x0 PUSH1 0x6 DUP2 SWAP1 SSTORE POP JUMPDEST PUSH1 0x6 PUSH1 0x0 DUP2 SLOAD DUP1 SWAP3 SWAP2 SWAP1 PUSH2 0x763 SWAP1 PUSH2 0x11A2 JUMP JUMPDEST SWAP2 SWAP1 POP SSTORE POP PUSH1 0x3 PUSH1 0x6 SLOAD LT PUSH2 0x817 JUMPI PUSH1 0x4 PUSH1 0x0 SWAP1 SLOAD SWAP1 PUSH2 0x100 EXP SWAP1 DIV PUSH20 0xFFFFFFFFFFFFFFFFFFFFFFFFFFFFFFFFFFFFFFFF AND PUSH1 0x0 DUP1 PUSH2 0x100 EXP DUP2 SLOAD DUP2 PUSH20 0xFFFFFFFFFFFFFFFFFFFFFFFFFFFFFFFFFFFFFFFF MUL NOT AND SWAP1 DUP4 PUSH20 0xFFFFFFFFFFFFFFFFFFFFFFFFFFFFFFFFFFFFFFFF AND MUL OR SWAP1 SSTORE POP PUSH1 0x0 PUSH1 0x4 PUSH1 0x0 PUSH2 0x100 EXP DUP2 SLOAD DUP2 PUSH20 0xFFFFFFFFFFFFFFFFFFFFFFFFFFFFFFFFFFFFFFFF MUL NOT AND SWAP1 DUP4 PUSH20 0xFFFFFFFFFFFFFFFFFFFFFFFFFFFFFFFFFFFFFFFF AND MUL OR SWAP1 SSTORE POP JUMPDEST POP JUMP JUMPDEST PUSH1 0x60 PUSH1 0x0 DUP1 SLOAD SWAP1 PUSH2 0x100 EXP SWAP1 DIV PUSH20 0xFFFFFFFFFFFFFFFFFFFFFFFFFFFFFFFFFFFFFFFF AND PUSH20 0xFFFFFFFFFFFFFFFFFFFFFFFFFFFFFFFFFFFFFFFF AND CALLER PUSH20 0xFFFFFFFFFFFFFFFFFFFFFFFFFFFFFFFFFFFFFFFF AND EQ PUSH2 0x8AA JUMPI PUSH1 0x40 MLOAD PUSH32 0x8C379A000000000000000000000000000000000000000000000000000000000 DUP2 MSTORE PUSH1 0x4 ADD PUSH2 0x8A1 SWAP1 PUSH2 0x1055 JUMP JUMPDEST PUSH1 0x40 MLOAD DUP1 SWAP2 SUB SWAP1 REVERT JUMPDEST PUSH1 0x0 DUP1 SLOAD SWAP1 PUSH2 0x100 EXP SWAP1 DIV PUSH20 0xFFFFFFFFFFFFFFFFFFFFFFFFFFFFFFFFFFFFFFFF AND PUSH20 0xFFFFFFFFFFFFFFFFFFFFFFFFFFFFFFFFFFFFFFFF AND CALLER PUSH20 0xFFFFFFFFFFFFFFFFFFFFFFFFFFFFFFFFFFFFFFFF AND EQ PUSH2 0xA62 JUMPI PUSH1 0x2 PUSH1 0x0 CALLER PUSH20 0xFFFFFFFFFFFFFFFFFFFFFFFFFFFFFFFFFFFFFFFF AND PUSH20 0xFFFFFFFFFFFFFFFFFFFFFFFFFFFFFFFFFFFFFFFF AND DUP2 MSTORE PUSH1 0x20 ADD SWAP1 DUP2 MSTORE PUSH1 0x20 ADD PUSH1 0x0 KECCAK256 PUSH1 0x0 SWAP1 SLOAD SWAP1 PUSH2 0x100 EXP SWAP1 DIV PUSH1 0xFF AND PUSH2 0x989 JUMPI PUSH1 0x40 MLOAD PUSH32 0x8C379A000000000000000000000000000000000000000000000000000000000 DUP2 MSTORE PUSH1 0x4 ADD PUSH2 0x980 SWAP1 PUSH2 0x125C JUMP JUMPDEST PUSH1 0x40 MLOAD DUP1 SWAP2 SUB SWAP1 REVERT JUMPDEST DUP3 PUSH1 0x1 PUSH1 0x0 CALLER PUSH20 0xFFFFFFFFFFFFFFFFFFFFFFFFFFFFFFFFFFFFFFFF AND PUSH20 0xFFFFFFFFFFFFFFFFFFFFFFFFFFFFFFFFFFFFFFFF AND DUP2 MSTORE PUSH1 0x20 ADD SWAP1 DUP2 MSTORE PUSH1 0x20 ADD PUSH1 0x0 KECCAK256 SLOAD LT ISZERO PUSH2 0xA0B JUMPI PUSH1 0x40 MLOAD PUSH32 0x8C379A000000000000000000000000000000000000000000000000000000000 DUP2 MSTORE PUSH1 0x4 ADD PUSH2 0xA02 SWAP1 PUSH2 0x12EE JUMP JUMPDEST PUSH1 0x40 MLOAD DUP1 SWAP2 SUB SWAP1 REVERT JUMPDEST DUP3 PUSH1 0x1 PUSH1 0x0 CALLER PUSH20 0xFFFFFFFFFFFFFFFFFFFFFFFFFFFFFFFFFFFFFFFF AND PUSH20 0xFFFFFFFFFFFFFFFFFFFFFFFFFFFFFFFFFFFFFFFF AND DUP2 MSTORE PUSH1 0x20 ADD SWAP1 DUP2 MSTORE PUSH1 0x20 ADD PUSH1 0x0 KECCAK256 PUSH1 0x0 DUP3 DUP3 SLOAD PUSH2 0xA5A SWAP2 SWAP1 PUSH2 0x130E JUMP JUMPDEST SWAP3 POP POP DUP2 SWAP1 SSTORE POP JUMPDEST PUSH1 0x0 DUP1 DUP6 PUSH20 0xFFFFFFFFFFFFFFFFFFFFFFFFFFFFFFFFFFFFFFFF AND DUP6 DUP6 PUSH1 0x40 MLOAD PUSH2 0xA8B SWAP2 SWAP1 PUSH2 0x137E JUMP JUMPDEST PUSH1 0x0 PUSH1 0x40 MLOAD DUP1 DUP4 SUB DUP2 DUP6 DUP8 GAS CALL SWAP3 POP POP POP RETURNDATASIZE DUP1 PUSH1 0x0 DUP2 EQ PUSH2 0xAC8 JUMPI PUSH1 0x40 MLOAD SWAP2 POP PUSH1 0x1F NOT PUSH1 0x3F RETURNDATASIZE ADD AND DUP3 ADD PUSH1 0x40 MSTORE RETURNDATASIZE DUP3 MSTORE RETURNDATASIZE PUSH1 0x0 PUSH1 0x20 DUP5 ADD RETURNDATACOPY PUSH2 0xACD JUMP JUMPDEST PUSH1 0x60 SWAP2 POP JUMPDEST POP SWAP2 POP SWAP2 POP DUP2 PUSH2 0xB12 JUMPI PUSH1 0x40 MLOAD PUSH32 0x8C379A000000000000000000000000000000000000000000000000000000000 DUP2 MSTORE PUSH1 0x4 ADD PUSH2 0xB09 SWAP1 PUSH2 0x1407 JUMP JUMPDEST PUSH1 0x40 MLOAD DUP1 SWAP2 SUB SWAP1 REVERT JUMPDEST DUP1 SWAP3 POP POP POP SWAP4 SWAP3 POP POP POP JUMP JUMPDEST PUSH1 0x3 DUP2 JUMP JUMPDEST PUSH1 0x0 PUSH1 0x40 MLOAD SWAP1 POP SWAP1 JUMP JUMPDEST PUSH1 0x0 DUP1 REVERT JUMPDEST PUSH1 0x0 DUP1 REVERT JUMPDEST PUSH1 0x0 PUSH20 0xFFFFFFFFFFFFFFFFFFFFFFFFFFFFFFFFFFFFFFFF DUP3 AND SWAP1 POP SWAP2 SWAP1 POP JUMP JUMPDEST PUSH1 0x0 PUSH2 0xB62 DUP3 PUSH2 0xB37 JUMP JUMPDEST SWAP1 POP SWAP2 SWAP1 POP JUMP JUMPDEST PUSH2 0xB72 DUP2 PUSH2 0xB57 JUMP JUMPDEST DUP2 EQ PUSH2 0xB7D JUMPI PUSH1 0x0 DUP1 REVERT JUMPDEST POP JUMP JUMPDEST PUSH1 0x0 DUP2 CALLDATALOAD SWAP1 POP PUSH2 0xB8F DUP2 PUSH2 0xB69 JUMP JUMPDEST SWAP3 SWAP2 POP POP JUMP JUMPDEST PUSH1 0x0 PUSH1 0x20 DUP3 DUP5 SUB SLT ISZERO PUSH2 0xBAB JUMPI PUSH2 0xBAA PUSH2 0xB2D JUMP JUMPDEST JUMPDEST PUSH1 0x0 PUSH2 0xBB9 DUP5 DUP3 DUP6 ADD PUSH2 0xB80 JUMP JUMPDEST SWAP2 POP POP SWAP3 SWAP2 POP POP JUMP JUMPDEST PUSH1 0x0 DUP2 ISZERO ISZERO SWAP1 POP SWAP2 SWAP1 POP JUMP JUMPDEST PUSH2 0xBD7 DUP2 PUSH2 0xBC2 JUMP JUMPDEST DUP3 MSTORE POP POP JUMP JUMPDEST PUSH1 0x0 PUSH1 0x20 DUP3 ADD SWAP1 POP PUSH2 0xBF2 PUSH1 0x0 DUP4 ADD DUP5 PUSH2 0xBCE JUMP JUMPDEST SWAP3 SWAP2 POP POP JUMP JUMPDEST PUSH1 0x0 DUP2 SWAP1 POP SWAP2 SWAP1 POP JUMP JUMPDEST PUSH2 0xC0B DUP2 PUSH2 0xBF8 JUMP JUMPDEST DUP2 EQ PUSH2 0xC16 JUMPI PUSH1 0x0 DUP1 REVERT JUMPDEST POP JUMP JUMPDEST PUSH1 0x0 DUP2 CALLDATALOAD SWAP1 POP PUSH2 0xC28 DUP2 PUSH2 0xC02 JUMP JUMPDEST SWAP3 SWAP2 POP POP JUMP JUMPDEST PUSH1 0x0 DUP1 PUSH1 0x40 DUP4 DUP6 SUB SLT ISZERO PUSH2 0xC45 JUMPI PUSH2 0xC44 PUSH2 0xB2D JUMP JUMPDEST JUMPDEST PUSH1 0x0 PUSH2 0xC53 DUP6 DUP3 DUP7 ADD PUSH2 0xB80 JUMP JUMPDEST SWAP3 POP POP PUSH1 0x20 PUSH2 0xC64 DUP6 DUP3 DUP7 ADD PUSH2 0xC19 JUMP JUMPDEST SWAP2 POP POP SWAP3 POP SWAP3 SWAP1 POP JUMP JUMPDEST PUSH1 0x0 PUSH2 0xC79 DUP3 PUSH2 0xB37 JUMP JUMPDEST SWAP1 POP SWAP2 SWAP1 POP JUMP JUMPDEST PUSH2 0xC89 DUP2 PUSH2 0xC6E JUMP JUMPDEST DUP3 MSTORE POP POP JUMP JUMPDEST PUSH1 0x0 PUSH1 0x20 DUP3 ADD SWAP1 POP PUSH2 0xCA4 PUSH1 0x0 DUP4 ADD DUP5 PUSH2 0xC80 JUMP JUMPDEST SWAP3 SWAP2 POP POP JUMP JUMPDEST PUSH2 0xCB3 DUP2 PUSH2 0xBC2 JUMP JUMPDEST DUP2 EQ PUSH2 0xCBE JUMPI PUSH1 0x0 DUP1 REVERT JUMPDEST POP JUMP JUMPDEST PUSH1 0x0 DUP2 CALLDATALOAD SWAP1 POP PUSH2 0xCD0 DUP2 PUSH2 0xCAA JUMP JUMPDEST SWAP3 SWAP2 POP POP JUMP JUMPDEST PUSH1 0x0 DUP1 PUSH1 0x40 DUP4 DUP6 SUB SLT ISZERO PUSH2 0xCED JUMPI PUSH2 0xCEC PUSH2 0xB2D JUMP JUMPDEST JUMPDEST PUSH1 0x0 PUSH2 0xCFB DUP6 DUP3 DUP7 ADD PUSH2 0xB80 JUMP JUMPDEST SWAP3 POP POP PUSH1 0x20 PUSH2 0xD0C DUP6 DUP3 DUP7 ADD PUSH2 0xCC1 JUMP JUMPDEST SWAP2 POP POP SWAP3 POP SWAP3 SWAP1 POP JUMP JUMPDEST PUSH2 0xD1F DUP2 PUSH2 0xBF8 JUMP JUMPDEST DUP3 MSTORE POP POP JUMP JUMPDEST PUSH1 0x0 PUSH1 0x20 DUP3 ADD SWAP1 POP PUSH2 0xD3A PUSH1 0x0 DUP4 ADD DUP5 PUSH2 0xD16 JUMP JUMPDEST SWAP3 SWAP2 POP POP JUMP JUMPDEST PUSH2 0xD49 DUP2 PUSH2 0xC6E JUMP JUMPDEST DUP2 EQ PUSH2 0xD54 JUMPI PUSH1 0x0 DUP1 REVERT JUMPDEST POP JUMP JUMPDEST PUSH1 0x0 DUP2 CALLDATALOAD SWAP1 POP PUSH2 0xD66 DUP2 PUSH2 0xD40 JUMP JUMPDEST SWAP3 SWAP2 POP POP JUMP JUMPDEST PUSH1 0x0 PUSH1 0x20 DUP3 DUP5 SUB SLT ISZERO PUSH2 0xD82 JUMPI PUSH2 0xD81 PUSH2 0xB2D JUMP JUMPDEST JUMPDEST PUSH1 0x0 PUSH2 0xD90 DUP5 DUP3 DUP6 ADD PUSH2 0xD57 JUMP JUMPDEST SWAP2 POP POP SWAP3 SWAP2 POP POP JUMP JUMPDEST PUSH1 0x0 DUP1 REVERT JUMPDEST PUSH1 0x0 DUP1 REVERT JUMPDEST PUSH1 0x0 PUSH1 0x1F NOT PUSH1 0x1F DUP4 ADD AND SWAP1 POP SWAP2 SWAP1 POP JUMP JUMPDEST PUSH32 0x4E487B7100000000000000000000000000000000000000000000000000000000 PUSH1 0x0 MSTORE PUSH1 0x41 PUSH1 0x4 MSTORE PUSH1 0x24 PUSH1 0x0 REVERT JUMPDEST PUSH2 0xDEC DUP3 PUSH2 0xDA3 JUMP JUMPDEST DUP2 ADD DUP2 DUP2 LT PUSH8 0xFFFFFFFFFFFFFFFF DUP3 GT OR ISZERO PUSH2 0xE0B JUMPI PUSH2 0xE0A PUSH2 0xDB4 JUMP JUMPDEST JUMPDEST DUP1 PUSH1 0x40 MSTORE POP POP POP JUMP JUMPDEST PUSH1 0x0 PUSH2 0xE1E PUSH2 0xB23 JUMP JUMPDEST SWAP1 POP PUSH2 0xE2A DUP3 DUP3 PUSH2 0xDE3 JUMP JUMPDEST SWAP2 SWAP1 POP JUMP JUMPDEST PUSH1 0x0 PUSH8 0xFFFFFFFFFFFFFFFF DUP3 GT ISZERO PUSH2 0xE4A JUMPI PUSH2 0xE49 PUSH2 0xDB4 JUMP JUMPDEST JUMPDEST PUSH2 0xE53 DUP3 PUSH2 0xDA3 JUMP JUMPDEST SWAP1 POP PUSH1 0x20 DUP2 ADD SWAP1 POP SWAP2 SWAP1 POP JUMP JUMPDEST DUP3 DUP2 DUP4 CALLDATACOPY PUSH1 0x0 DUP4 DUP4 ADD MSTORE POP POP POP JUMP JUMPDEST PUSH1 0x0 PUSH2 0xE82 PUSH2 0xE7D DUP5 PUSH2 0xE2F JUMP JUMPDEST PUSH2 0xE14 JUMP JUMPDEST SWAP1 POP DUP3 DUP2 MSTORE PUSH1 0x20 DUP2 ADD DUP5 DUP5 DUP5 ADD GT ISZERO PUSH2 0xE9E JUMPI PUSH2 0xE9D PUSH2 0xD9E JUMP JUMPDEST JUMPDEST PUSH2 0xEA9 DUP5 DUP3 DUP6 PUSH2 0xE60 JUMP JUMPDEST POP SWAP4 SWAP3 POP POP POP JUMP JUMPDEST PUSH1 0x0 DUP3 PUSH1 0x1F DUP4 ADD SLT PUSH2 0xEC6 JUMPI PUSH2 0xEC5 PUSH2 0xD99 JUMP JUMPDEST JUMPDEST DUP2 CALLDATALOAD PUSH2 0xED6 DUP5 DUP3 PUSH1 0x20 DUP7 ADD PUSH2 0xE6F JUMP JUMPDEST SWAP2 POP POP SWAP3 SWAP2 POP POP JUMP JUMPDEST PUSH1 0x0 DUP1 PUSH1 0x0 PUSH1 0x60 DUP5 DUP7 SUB SLT ISZERO PUSH2 0xEF8 JUMPI PUSH2 0xEF7 PUSH2 0xB2D JUMP JUMPDEST JUMPDEST PUSH1 0x0 PUSH2 0xF06 DUP7 DUP3 DUP8 ADD PUSH2 0xD57 JUMP JUMPDEST SWAP4 POP POP PUSH1 0x20 PUSH2 0xF17 DUP7 DUP3 DUP8 ADD PUSH2 0xC19 JUMP JUMPDEST SWAP3 POP POP PUSH1 0x40 DUP5 ADD CALLDATALOAD PUSH8 0xFFFFFFFFFFFFFFFF DUP2 GT ISZERO PUSH2 0xF38 JUMPI PUSH2 0xF37 PUSH2 0xB32 JUMP JUMPDEST JUMPDEST PUSH2 0xF44 DUP7 DUP3 DUP8 ADD PUSH2 0xEB1 JUMP JUMPDEST SWAP2 POP POP SWAP3 POP SWAP3 POP SWAP3 JUMP JUMPDEST PUSH1 0x0 DUP2 MLOAD SWAP1 POP SWAP2 SWAP1 POP JUMP JUMPDEST PUSH1 0x0 DUP3 DUP3 MSTORE PUSH1 0x20 DUP3 ADD SWAP1 POP SWAP3 SWAP2 POP POP JUMP JUMPDEST PUSH1 0x0 JUMPDEST DUP4 DUP2 LT ISZERO PUSH2 0xF88 JUMPI DUP1 DUP3 ADD MLOAD DUP2 DUP5 ADD MSTORE PUSH1 0x20 DUP2 ADD SWAP1 POP PUSH2 0xF6D JUMP JUMPDEST DUP4 DUP2 GT ISZERO PUSH2 0xF97 JUMPI PUSH1 0x0 DUP5 DUP5 ADD MSTORE JUMPDEST POP POP POP POP JUMP JUMPDEST PUSH1 0x0 PUSH2 0xFA8 DUP3 PUSH2 0xF4E JUMP JUMPDEST PUSH2 0xFB2 DUP2 DUP6 PUSH2 0xF59 JUMP JUMPDEST SWAP4 POP PUSH2 0xFC2 DUP2 DUP6 PUSH1 0x20 DUP7 ADD PUSH2 0xF6A JUMP JUMPDEST PUSH2 0xFCB DUP2 PUSH2 0xDA3 JUMP JUMPDEST DUP5 ADD SWAP2 POP POP SWAP3 SWAP2 POP POP JUMP JUMPDEST PUSH1 0x0 PUSH1 0x20 DUP3 ADD SWAP1 POP DUP2 DUP2 SUB PUSH1 0x0 DUP4 ADD MSTORE PUSH2 0xFF0 DUP2 DUP5 PUSH2 0xF9D JUMP JUMPDEST SWAP1 POP SWAP3 SWAP2 POP POP JUMP JUMPDEST PUSH1 0x0 DUP3 DUP3 MSTORE PUSH1 0x20 DUP3 ADD SWAP1 POP SWAP3 SWAP2 POP POP JUMP JUMPDEST PUSH32 0x596F7520617265206E6F7420746865206F776E65722C2061626F7274696E6700 PUSH1 0x0 DUP3 ADD MSTORE POP JUMP JUMPDEST PUSH1 0x0 PUSH2 0x103F PUSH1 0x1F DUP4 PUSH2 0xFF8 JUMP JUMPDEST SWAP2 POP PUSH2 0x104A DUP3 PUSH2 0x1009 JUMP JUMPDEST PUSH1 0x20 DUP3 ADD SWAP1 POP SWAP2 SWAP1 POP JUMP JUMPDEST PUSH1 0x0 PUSH1 0x20 DUP3 ADD SWAP1 POP DUP2 DUP2 SUB PUSH1 0x0 DUP4 ADD MSTORE PUSH2 0x106E DUP2 PUSH2 0x1032 JUMP JUMPDEST SWAP1 POP SWAP2 SWAP1 POP JUMP JUMPDEST PUSH32 0x596F7520617265206E6F7420677561726469616E206F6620746869732077616C PUSH1 0x0 DUP3 ADD MSTORE PUSH32 0x6C65742C2061626F7274696E6700000000000000000000000000000000000000 PUSH1 0x20 DUP3 ADD MSTORE POP JUMP JUMPDEST PUSH1 0x0 PUSH2 0x10D1 PUSH1 0x2D DUP4 PUSH2 0xFF8 JUMP JUMPDEST SWAP2 POP PUSH2 0x10DC DUP3 PUSH2 0x1075 JUMP JUMPDEST PUSH1 0x40 DUP3 ADD SWAP1 POP SWAP2 SWAP1 POP JUMP JUMPDEST PUSH1 0x0 PUSH1 0x20 DUP3 ADD SWAP1 POP DUP2 DUP2 SUB PUSH1 0x0 DUP4 ADD MSTORE PUSH2 0x1100 DUP2 PUSH2 0x10C4 JUMP JUMPDEST SWAP1 POP SWAP2 SWAP1 POP JUMP JUMPDEST PUSH32 0x596F752061726520616C726561647920766F7465642C2061626F7274696E6700 PUSH1 0x0 DUP3 ADD MSTORE POP JUMP JUMPDEST PUSH1 0x0 PUSH2 0x113D PUSH1 0x1F DUP4 PUSH2 0xFF8 JUMP JUMPDEST SWAP2 POP PUSH2 0x1148 DUP3 PUSH2 0x1107 JUMP JUMPDEST PUSH1 0x20 DUP3 ADD SWAP1 POP SWAP2 SWAP1 POP JUMP JUMPDEST PUSH1 0x0 PUSH1 0x20 DUP3 ADD SWAP1 POP DUP2 DUP2 SUB PUSH1 0x0 DUP4 ADD MSTORE PUSH2 0x116C DUP2 PUSH2 0x1130 JUMP JUMPDEST SWAP1 POP SWAP2 SWAP1 POP JUMP JUMPDEST PUSH32 0x4E487B7100000000000000000000000000000000000000000000000000000000 PUSH1 0x0 MSTORE PUSH1 0x11 PUSH1 0x4 MSTORE PUSH1 0x24 PUSH1 0x0 REVERT JUMPDEST PUSH1 0x0 PUSH2 0x11AD DUP3 PUSH2 0xBF8 JUMP JUMPDEST SWAP2 POP PUSH32 0xFFFFFFFFFFFFFFFFFFFFFFFFFFFFFFFFFFFFFFFFFFFFFFFFFFFFFFFFFFFFFFFF DUP3 SUB PUSH2 0x11DF JUMPI PUSH2 0x11DE PUSH2 0x1173 JUMP JUMPDEST JUMPDEST PUSH1 0x1 DUP3 ADD SWAP1 POP SWAP2 SWAP1 POP JUMP JUMPDEST PUSH32 0x596F752061726520616C6C6F77656420746F2073656E6420616E797468696E67 PUSH1 0x0 DUP3 ADD MSTORE PUSH32 0x2066726F6D207468697320736D61727420636F6E747261637400000000000000 PUSH1 0x20 DUP3 ADD MSTORE POP JUMP JUMPDEST PUSH1 0x0 PUSH2 0x1246 PUSH1 0x39 DUP4 PUSH2 0xFF8 JUMP JUMPDEST SWAP2 POP PUSH2 0x1251 DUP3 PUSH2 0x11EA JUMP JUMPDEST PUSH1 0x40 DUP3 ADD SWAP1 POP SWAP2 SWAP1 POP JUMP JUMPDEST PUSH1 0x0 PUSH1 0x20 DUP3 ADD SWAP1 POP DUP2 DUP2 SUB PUSH1 0x0 DUP4 ADD MSTORE PUSH2 0x1275 DUP2 PUSH2 0x1239 JUMP JUMPDEST SWAP1 POP SWAP2 SWAP1 POP JUMP JUMPDEST PUSH32 0x596F752061726520747279696E6720746F2073656E64206D6F7265207468616E PUSH1 0x0 DUP3 ADD MSTORE PUSH32 0x20796F752061726520616C6C6F77656420746F2C2061626F7274696E67000000 PUSH1 0x20 DUP3 ADD MSTORE POP JUMP JUMPDEST PUSH1 0x0 PUSH2 0x12D8 PUSH1 0x3D DUP4 PUSH2 0xFF8 JUMP JUMPDEST SWAP2 POP PUSH2 0x12E3 DUP3 PUSH2 0x127C JUMP JUMPDEST PUSH1 0x40 DUP3 ADD SWAP1 POP SWAP2 SWAP1 POP JUMP JUMPDEST PUSH1 0x0 PUSH1 0x20 DUP3 ADD SWAP1 POP DUP2 DUP2 SUB PUSH1 0x0 DUP4 ADD MSTORE PUSH2 0x1307 DUP2 PUSH2 0x12CB JUMP JUMPDEST SWAP1 POP SWAP2 SWAP1 POP JUMP JUMPDEST PUSH1 0x0 PUSH2 0x1319 DUP3 PUSH2 0xBF8 JUMP JUMPDEST SWAP2 POP PUSH2 0x1324 DUP4 PUSH2 0xBF8 JUMP JUMPDEST SWAP3 POP DUP3 DUP3 LT ISZERO PUSH2 0x1337 JUMPI PUSH2 0x1336 PUSH2 0x1173 JUMP JUMPDEST JUMPDEST DUP3 DUP3 SUB SWAP1 POP SWAP3 SWAP2 POP POP JUMP JUMPDEST PUSH1 0x0 DUP2 SWAP1 POP SWAP3 SWAP2 POP POP JUMP JUMPDEST PUSH1 0x0 PUSH2 0x1358 DUP3 PUSH2 0xF4E JUMP JUMPDEST PUSH2 0x1362 DUP2 DUP6 PUSH2 0x1342 JUMP JUMPDEST SWAP4 POP PUSH2 0x1372 DUP2 DUP6 PUSH1 0x20 DUP7 ADD PUSH2 0xF6A JUMP JUMPDEST DUP1 DUP5 ADD SWAP2 POP POP SWAP3 SWAP2 POP POP JUMP JUMPDEST PUSH1 0x0 PUSH2 0x138A DUP3 DUP5 PUSH2 0x134D JUMP JUMPDEST SWAP2 POP DUP2 SWAP1 POP SWAP3 SWAP2 POP POP JUMP JUMPDEST PUSH32 0x41626F7274696E672C2063616C6C20776173206E6F7420737563636573736675 PUSH1 0x0 DUP3 ADD MSTORE PUSH32 0x6C00000000000000000000000000000000000000000000000000000000000000 PUSH1 0x20 DUP3 ADD MSTORE POP JUMP JUMPDEST PUSH1 0x0 PUSH2 0x13F1 PUSH1 0x21 DUP4 PUSH2 0xFF8 JUMP JUMPDEST SWAP2 POP PUSH2 0x13FC DUP3 PUSH2 0x1395 JUMP JUMPDEST PUSH1 0x40 DUP3 ADD SWAP1 POP SWAP2 SWAP1 POP JUMP JUMPDEST PUSH1 0x0 PUSH1 0x20 DUP3 ADD SWAP1 POP DUP2 DUP2 SUB PUSH1 0x0 DUP4 ADD MSTORE PUSH2 0x1420 DUP2 PUSH2 0x13E4 JUMP JUMPDEST SWAP1 POP SWAP2 SWAP1 POP JUMP INVALID LOG2 PUSH5 0x6970667358 0x22 SLT KECCAK256 DUP8 BALANCE SWAP3 PUSH11 0x6C41B179EEBE5356B1C4EF SWAP14 LOG0 0xD1 EXTCODECOPY 0xB4 PUSH16 0x10255A1B6DE0A55F5BE1A364736F6C63 NUMBER STOP ADDMOD 0xF STOP CALLER "
				},
				"gasEstimates": {
					"creation": {
						"codeDepositCost": "1042600",
						"executionCost": "25346",
						"totalCost": "1067946"
					},
					"external": {
						"allowence(address)": "2836",
						"confirmationFromGuardianForReset()": "417",
						"guardians(address)": "2846",
						"isAllowedToSend(address)": "2868",
						"owner()": "2578",
						"proposeNewOwner(address)": "63023",
						"setAllowance(address,uint256)": "49438",
						"setGaurdian(address,bool)": "27158",
						"transfer(address,uint256,bytes)": "infinite"
					}
				},
				"methodIdentifiers": {
					"allowence(address)": "aef46244",
					"confirmationFromGuardianForReset()": "caf5b411",
					"guardians(address)": "0633b14a",
					"isAllowedToSend(address)": "0bc605ad",
					"owner()": "8da5cb5b",
					"proposeNewOwner(address)": "b1f8100d",
					"setAllowance(address,uint256)": "310ec4a7",
					"setGaurdian(address,bool)": "a364c09f",
					"transfer(address,uint256,bytes)": "be45fd62"
				}
			},
			"storageLayout": {
				"storage": [
					{
						"astId": 20,
						"contract": "contracts/SmartContractWallet.sol:SmartContractWallet",
						"label": "owner",
						"offset": 0,
						"slot": "0",
						"type": "t_address_payable"
					},
					{
						"astId": 24,
						"contract": "contracts/SmartContractWallet.sol:SmartContractWallet",
						"label": "allowence",
						"offset": 0,
						"slot": "1",
						"type": "t_mapping(t_address,t_uint256)"
					},
					{
						"astId": 28,
						"contract": "contracts/SmartContractWallet.sol:SmartContractWallet",
						"label": "isAllowedToSend",
						"offset": 0,
						"slot": "2",
						"type": "t_mapping(t_address,t_bool)"
					},
					{
						"astId": 32,
						"contract": "contracts/SmartContractWallet.sol:SmartContractWallet",
						"label": "guardians",
						"offset": 0,
						"slot": "3",
						"type": "t_mapping(t_address,t_bool)"
					},
					{
						"astId": 34,
						"contract": "contracts/SmartContractWallet.sol:SmartContractWallet",
						"label": "nextOwner",
						"offset": 0,
						"slot": "4",
						"type": "t_address_payable"
					},
					{
						"astId": 40,
						"contract": "contracts/SmartContractWallet.sol:SmartContractWallet",
						"label": "nextOwnerGuardianVotedBool",
						"offset": 0,
						"slot": "5",
						"type": "t_mapping(t_address,t_mapping(t_address,t_bool))"
					},
					{
						"astId": 42,
						"contract": "contracts/SmartContractWallet.sol:SmartContractWallet",
						"label": "guardiansResetCount",
						"offset": 0,
						"slot": "6",
						"type": "t_uint256"
					}
				],
				"types": {
					"t_address": {
						"encoding": "inplace",
						"label": "address",
						"numberOfBytes": "20"
					},
					"t_address_payable": {
						"encoding": "inplace",
						"label": "address payable",
						"numberOfBytes": "20"
					},
					"t_bool": {
						"encoding": "inplace",
						"label": "bool",
						"numberOfBytes": "1"
					},
					"t_mapping(t_address,t_bool)": {
						"encoding": "mapping",
						"key": "t_address",
						"label": "mapping(address => bool)",
						"numberOfBytes": "32",
						"value": "t_bool"
					},
					"t_mapping(t_address,t_mapping(t_address,t_bool))": {
						"encoding": "mapping",
						"key": "t_address",
						"label": "mapping(address => mapping(address => bool))",
						"numberOfBytes": "32",
						"value": "t_mapping(t_address,t_bool)"
					},
					"t_mapping(t_address,t_uint256)": {
						"encoding": "mapping",
						"key": "t_address",
						"label": "mapping(address => uint256)",
						"numberOfBytes": "32",
						"value": "t_uint256"
					},
					"t_uint256": {
						"encoding": "inplace",
						"label": "uint256",
						"numberOfBytes": "32"
					}
				}
			},
			"userdoc": {
				"kind": "user",
				"methods": {},
				"version": 1
			}
		}
	}
}